{"contracts/Raffle.sol":{"Raffle":{"abi":[{"inputs":[{"internalType":"address","name":"vrfCoordinatorV2","type":"address"},{"internalType":"uint256","name":"entranceFee","type":"uint256"},{"internalType":"bytes32","name":"gasLane","type":"bytes32"},{"internalType":"uint64","name":"subscriptionId","type":"uint64"},{"internalType":"uint32","name":"callbackGasLimit","type":"uint32"},{"internalType":"uint256","name":"interval","type":"uint256"}],"stateMutability":"nonpayable","type":"constructor"},{"inputs":[{"internalType":"address","name":"have","type":"address"},{"internalType":"address","name":"want","type":"address"}],"name":"OnlyCoordinatorCanFulfill","type":"error"},{"inputs":[],"name":"Raffle__NotEnoughETHEntered","type":"error"},{"inputs":[],"name":"Raffle__NotOpen","type":"error"},{"inputs":[],"name":"Raffle__TransferFailed","type":"error"},{"inputs":[{"internalType":"uint256","name":"currentBalace","type":"uint256"},{"internalType":"uint256","name":"numPlayers","type":"uint256"},{"internalType":"uint256","name":"raffleState","type":"uint256"}],"name":"Raffle__UpkeepNotNeeded","type":"error"},{"anonymous":false,"inputs":[{"indexed":true,"internalType":"address","name":"player","type":"address"}],"name":"RaffleEnter","type":"event"},{"anonymous":false,"inputs":[{"indexed":true,"internalType":"uint256","name":"requestId","type":"uint256"}],"name":"RequestedRaffleWinner","type":"event"},{"anonymous":false,"inputs":[{"indexed":true,"internalType":"address","name":"winner","type":"address"}],"name":"WinnerPicked","type":"event"},{"inputs":[{"internalType":"bytes","name":"","type":"bytes"}],"name":"checkUpKeep","outputs":[{"internalType":"bool","name":"upkeepNeeded","type":"bool"},{"internalType":"bytes","name":"","type":"bytes"}],"stateMutability":"nonpayable","type":"function"},{"inputs":[],"name":"enterRaffle","outputs":[],"stateMutability":"payable","type":"function"},{"inputs":[],"name":"getEntranceFee","outputs":[{"internalType":"uint256","name":"","type":"uint256"}],"stateMutability":"view","type":"function"},{"inputs":[],"name":"getNumWords","outputs":[{"internalType":"uint256","name":"","type":"uint256"}],"stateMutability":"view","type":"function"},{"inputs":[{"internalType":"uint256","name":"index","type":"uint256"}],"name":"getPlayer","outputs":[{"internalType":"address","name":"","type":"address"}],"stateMutability":"view","type":"function"},{"inputs":[],"name":"getRaffelState","outputs":[{"internalType":"enum Raffle.RaffleState","name":"","type":"uint8"}],"stateMutability":"view","type":"function"},{"inputs":[],"name":"getRecentWinner","outputs":[{"internalType":"address","name":"","type":"address"}],"stateMutability":"view","type":"function"},{"inputs":[{"internalType":"bytes","name":"","type":"bytes"}],"name":"performUpkeep","outputs":[],"stateMutability":"nonpayable","type":"function"},{"inputs":[{"internalType":"uint256","name":"requestId","type":"uint256"},{"internalType":"uint256[]","name":"randomWords","type":"uint256[]"}],"name":"rawFulfillRandomWords","outputs":[],"stateMutability":"nonpayable","type":"function"}],"devdoc":{"author":"jasminesprout1","details":"This implements Chainlink VRF v2 and Chainlink Keepers","kind":"dev","methods":{"checkUpKeep(bytes)":{"details":"This is the function that the Chainlink Keepers nodes call They look for the `upKeepNeeded` to return true The following should be true in order to return true 1. Our time interval should have passed 2. The lottery should have at least 1 player, and have some ETH 3. Our subscription is funded with $LINK 4. The lottery should be in an \"open\" state."}},"title":"A sample Raffle Contract","version":1},"evm":{"bytecode":{"linkReferences":{},"object":"6101606040523480156200001257600080fd5b50604051620016e0380380620016e0833981810160405281019062000038919062000294565b858073ffffffffffffffffffffffffffffffffffffffff1660808173ffffffffffffffffffffffffffffffffffffffff1681525050508460a081815250508573ffffffffffffffffffffffffffffffffffffffff1660c08173ffffffffffffffffffffffffffffffffffffffff16815250508360e081815250508267ffffffffffffffff166101008167ffffffffffffffff16815250508163ffffffff166101208163ffffffff16815250506000600160146101000a81548160ff021916908360018111156200010d576200010c62000330565b5b0217905550426002819055508061014081815250505050505050506200035f565b600080fd5b600073ffffffffffffffffffffffffffffffffffffffff82169050919050565b6000620001608262000133565b9050919050565b620001728162000153565b81146200017e57600080fd5b50565b600081519050620001928162000167565b92915050565b6000819050919050565b620001ad8162000198565b8114620001b957600080fd5b50565b600081519050620001cd81620001a2565b92915050565b6000819050919050565b620001e881620001d3565b8114620001f457600080fd5b50565b6000815190506200020881620001dd565b92915050565b600067ffffffffffffffff82169050919050565b6200022d816200020e565b81146200023957600080fd5b50565b6000815190506200024d8162000222565b92915050565b600063ffffffff82169050919050565b6200026e8162000253565b81146200027a57600080fd5b50565b6000815190506200028e8162000263565b92915050565b60008060008060008060c08789031215620002b457620002b36200012e565b5b6000620002c489828a0162000181565b9650506020620002d789828a01620001bc565b9550506040620002ea89828a01620001f7565b9450506060620002fd89828a016200023c565b93505060806200031089828a016200027d565b92505060a06200032389828a01620001bc565b9150509295509295509295565b7f4e487b7100000000000000000000000000000000000000000000000000000000600052602160045260246000fd5b60805160a05160c05160e051610100516101205161014051611318620003c860003960006106e00152600061059c01526000610579015260006105580152600061051c01526000818161021201526102f8015260008181610238015261028c01526113186000f3fe6080604052600436106100865760003560e01c8063473f1ddc11610059578063473f1ddc1461011257806353a2c19a1461013d5780635e6c102e146101685780638a78da41146101a6578063e55ae4e8146101d157610086565b806309bc33a71461008b5780631fe543e3146100b65780632cfcc539146100df5780634585e33b146100e9575b600080fd5b34801561009757600080fd5b506100a061020e565b6040516100ad9190610a99565b60405180910390f35b3480156100c257600080fd5b506100dd60048036038101906100d89190610c4d565b610236565b005b6100e76102f6565b005b3480156100f557600080fd5b50610110600480360381019061010b9190610d04565b610465565b005b34801561011e57600080fd5b50610127610664565b6040516101349190610d92565b60405180910390f35b34801561014957600080fd5b5061015261068e565b60405161015f9190610a99565b60405180910390f35b34801561017457600080fd5b5061018f600480360381019061018a9190610e62565b61069d565b60405161019d929190610f4e565b60405180910390f35b3480156101b257600080fd5b506101bb61074a565b6040516101c89190610ff5565b60405180910390f35b3480156101dd57600080fd5b506101f860048036038101906101f39190611010565b610761565b6040516102059190610d92565b60405180910390f35b60007f0000000000000000000000000000000000000000000000000000000000000000905090565b7f000000000000000000000000000000000000000000000000000000000000000073ffffffffffffffffffffffffffffffffffffffff163373ffffffffffffffffffffffffffffffffffffffff16146102e857337f00000000000000000000000000000000000000000000000000000000000000006040517f1cf993f40000000000000000000000000000000000000000000000000000000081526004016102df92919061103d565b60405180910390fd5b6102f282826107a8565b5050565b7f0000000000000000000000000000000000000000000000000000000000000000341015610350576040517fbd4e069500000000000000000000000000000000000000000000000000000000815260040160405180910390fd5b6000600181111561036457610363610f7e565b5b600160149054906101000a900460ff16600181111561038657610385610f7e565b5b146103bd576040517f1425571c00000000000000000000000000000000000000000000000000000000815260040160405180910390fd5b6000339080600181540180825580915050600190039060005260206000200160009091909190916101000a81548173ffffffffffffffffffffffffffffffffffffffff021916908373ffffffffffffffffffffffffffffffffffffffff1602179055503373ffffffffffffffffffffffffffffffffffffffff167f0805e1d667bddb8a95f0f09880cf94f403fb596ce79928d9f29b74203ba284d460405160405180910390a2565b600061047f6040518060200160405280600081525061069d565b509050806104ee5747600080549050600160149054906101000a900460ff1660018111156104b0576104af610f7e565b5b6040517f584327aa0000000000000000000000000000000000000000000000000000000081526004016104e593929190611066565b60405180910390fd5b60018060146101000a81548160ff0219169083600181111561051357610512610f7e565b5b021790555060007f000000000000000000000000000000000000000000000000000000000000000073ffffffffffffffffffffffffffffffffffffffff16635d3b1d307f00000000000000000000000000000000000000000000000000000000000000007f000000000000000000000000000000000000000000000000000000000000000060037f000000000000000000000000000000000000000000000000000000000000000060016040518663ffffffff1660e01b81526004016105dd959493929190611115565b602060405180830381600087803b1580156105f757600080fd5b505af115801561060b573d6000803e3d6000fd5b505050506040513d601f19601f8201168201806040525081019061062f919061117d565b9050807fcd6e45c8998311cab7e9d4385596cac867e20a0587194b954fa3a731c93ce78b60405160405180910390a250505050565b6000600160009054906101000a900473ffffffffffffffffffffffffffffffffffffffff16905090565b6000600163ffffffff16905090565b600060606000600160149054906101000a900460ff1660018111156106c5576106c4610f7e565b5b600060018111156106d9576106d8610f7e565b5b14905060007f00000000000000000000000000000000000000000000000000000000000000006002544261070d91906111d9565b1190506000806000805490501190506000804711905083801561072d5750825b80156107365750815b801561073f5750805b955050505050915091565b6000600160149054906101000a900460ff16905090565b60008082815481106107765761077561120d565b5b9060005260206000200160009054906101000a900473ffffffffffffffffffffffffffffffffffffffff169050919050565b60008080549050826000815181106107c3576107c261120d565b5b60200260200101516107d5919061126b565b905060008082815481106107ec576107eb61120d565b5b9060005260206000200160009054906101000a900473ffffffffffffffffffffffffffffffffffffffff16905080600160006101000a81548173ffffffffffffffffffffffffffffffffffffffff021916908373ffffffffffffffffffffffffffffffffffffffff1602179055506000600160146101000a81548160ff021916908360018111156108805761087f610f7e565b5b0217905550600067ffffffffffffffff8111156108a05761089f610b0a565b5b6040519080825280602002602001820160405280156108ce5781602001602082028036833780820191505090505b50600090805190602001906108e49291906109d9565b504260028190555060008173ffffffffffffffffffffffffffffffffffffffff1647604051610912906112cd565b60006040518083038185875af1925050503d806000811461094f576040519150601f19603f3d011682016040523d82523d6000602084013e610954565b606091505b505090508061098f576040517fa1d04b3900000000000000000000000000000000000000000000000000000000815260040160405180910390fd5b8173ffffffffffffffffffffffffffffffffffffffff167f5b690ec4a06fe979403046eaeea5b3ce38524683c3001f662c8b5a829632f7df60405160405180910390a25050505050565b828054828255906000526020600020908101928215610a52579160200282015b82811115610a515782518260006101000a81548173ffffffffffffffffffffffffffffffffffffffff021916908373ffffffffffffffffffffffffffffffffffffffff160217905550916020019190600101906109f9565b5b509050610a5f9190610a63565b5090565b5b80821115610a7c576000816000905550600101610a64565b5090565b6000819050919050565b610a9381610a80565b82525050565b6000602082019050610aae6000830184610a8a565b92915050565b6000604051905090565b600080fd5b600080fd5b610ad181610a80565b8114610adc57600080fd5b50565b600081359050610aee81610ac8565b92915050565b600080fd5b6000601f19601f8301169050919050565b7f4e487b7100000000000000000000000000000000000000000000000000000000600052604160045260246000fd5b610b4282610af9565b810181811067ffffffffffffffff82111715610b6157610b60610b0a565b5b80604052505050565b6000610b74610ab4565b9050610b808282610b39565b919050565b600067ffffffffffffffff821115610ba057610b9f610b0a565b5b602082029050602081019050919050565b600080fd5b6000610bc9610bc484610b85565b610b6a565b90508083825260208201905060208402830185811115610bec57610beb610bb1565b5b835b81811015610c155780610c018882610adf565b845260208401935050602081019050610bee565b5050509392505050565b600082601f830112610c3457610c33610af4565b5b8135610c44848260208601610bb6565b91505092915050565b60008060408385031215610c6457610c63610abe565b5b6000610c7285828601610adf565b925050602083013567ffffffffffffffff811115610c9357610c92610ac3565b5b610c9f85828601610c1f565b9150509250929050565b600080fd5b60008083601f840112610cc457610cc3610af4565b5b8235905067ffffffffffffffff811115610ce157610ce0610ca9565b5b602083019150836001820283011115610cfd57610cfc610bb1565b5b9250929050565b60008060208385031215610d1b57610d1a610abe565b5b600083013567ffffffffffffffff811115610d3957610d38610ac3565b5b610d4585828601610cae565b92509250509250929050565b600073ffffffffffffffffffffffffffffffffffffffff82169050919050565b6000610d7c82610d51565b9050919050565b610d8c81610d71565b82525050565b6000602082019050610da76000830184610d83565b92915050565b600080fd5b600067ffffffffffffffff821115610dcd57610dcc610b0a565b5b610dd682610af9565b9050602081019050919050565b82818337600083830152505050565b6000610e05610e0084610db2565b610b6a565b905082815260208101848484011115610e2157610e20610dad565b5b610e2c848285610de3565b509392505050565b600082601f830112610e4957610e48610af4565b5b8135610e59848260208601610df2565b91505092915050565b600060208284031215610e7857610e77610abe565b5b600082013567ffffffffffffffff811115610e9657610e95610ac3565b5b610ea284828501610e34565b91505092915050565b60008115159050919050565b610ec081610eab565b82525050565b600081519050919050565b600082825260208201905092915050565b60005b83811015610f00578082015181840152602081019050610ee5565b83811115610f0f576000848401525b50505050565b6000610f2082610ec6565b610f2a8185610ed1565b9350610f3a818560208601610ee2565b610f4381610af9565b840191505092915050565b6000604082019050610f636000830185610eb7565b8181036020830152610f758184610f15565b90509392505050565b7f4e487b7100000000000000000000000000000000000000000000000000000000600052602160045260246000fd5b60028110610fbe57610fbd610f7e565b5b50565b6000819050610fcf82610fad565b919050565b6000610fdf82610fc1565b9050919050565b610fef81610fd4565b82525050565b600060208201905061100a6000830184610fe6565b92915050565b60006020828403121561102657611025610abe565b5b600061103484828501610adf565b91505092915050565b60006040820190506110526000830185610d83565b61105f6020830184610d83565b9392505050565b600060608201905061107b6000830186610a8a565b6110886020830185610a8a565b6110956040830184610a8a565b949350505050565b6000819050919050565b6110b08161109d565b82525050565b600067ffffffffffffffff82169050919050565b6110d3816110b6565b82525050565b600061ffff82169050919050565b6110f0816110d9565b82525050565b600063ffffffff82169050919050565b61110f816110f6565b82525050565b600060a08201905061112a60008301886110a7565b61113760208301876110ca565b61114460408301866110e7565b6111516060830185611106565b61115e6080830184611106565b9695505050505050565b60008151905061117781610ac8565b92915050565b60006020828403121561119357611192610abe565b5b60006111a184828501611168565b91505092915050565b7f4e487b7100000000000000000000000000000000000000000000000000000000600052601160045260246000fd5b60006111e482610a80565b91506111ef83610a80565b925082821015611202576112016111aa565b5b828203905092915050565b7f4e487b7100000000000000000000000000000000000000000000000000000000600052603260045260246000fd5b7f4e487b7100000000000000000000000000000000000000000000000000000000600052601260045260246000fd5b600061127682610a80565b915061128183610a80565b9250826112915761129061123c565b5b828206905092915050565b600081905092915050565b50565b60006112b760008361129c565b91506112c2826112a7565b600082019050919050565b60006112d8826112aa565b915081905091905056fea26469706673582212206e60ef4228c10342a634c9be60bbeb6b4e7efe0474ac202b10ecff12546ad02564736f6c63430008090033","opcodes":"PUSH2 0x160 PUSH1 0x40 MSTORE CALLVALUE DUP1 ISZERO PUSH3 0x12 JUMPI PUSH1 0x0 DUP1 REVERT JUMPDEST POP PUSH1 0x40 MLOAD PUSH3 0x16E0 CODESIZE SUB DUP1 PUSH3 0x16E0 DUP4 CODECOPY DUP2 DUP2 ADD PUSH1 0x40 MSTORE DUP2 ADD SWAP1 PUSH3 0x38 SWAP2 SWAP1 PUSH3 0x294 JUMP JUMPDEST DUP6 DUP1 PUSH20 0xFFFFFFFFFFFFFFFFFFFFFFFFFFFFFFFFFFFFFFFF AND PUSH1 0x80 DUP2 PUSH20 0xFFFFFFFFFFFFFFFFFFFFFFFFFFFFFFFFFFFFFFFF AND DUP2 MSTORE POP POP POP DUP5 PUSH1 0xA0 DUP2 DUP2 MSTORE POP POP DUP6 PUSH20 0xFFFFFFFFFFFFFFFFFFFFFFFFFFFFFFFFFFFFFFFF AND PUSH1 0xC0 DUP2 PUSH20 0xFFFFFFFFFFFFFFFFFFFFFFFFFFFFFFFFFFFFFFFF AND DUP2 MSTORE POP POP DUP4 PUSH1 0xE0 DUP2 DUP2 MSTORE POP POP DUP3 PUSH8 0xFFFFFFFFFFFFFFFF AND PUSH2 0x100 DUP2 PUSH8 0xFFFFFFFFFFFFFFFF AND DUP2 MSTORE POP POP DUP2 PUSH4 0xFFFFFFFF AND PUSH2 0x120 DUP2 PUSH4 0xFFFFFFFF AND DUP2 MSTORE POP POP PUSH1 0x0 PUSH1 0x1 PUSH1 0x14 PUSH2 0x100 EXP DUP2 SLOAD DUP2 PUSH1 0xFF MUL NOT AND SWAP1 DUP4 PUSH1 0x1 DUP2 GT ISZERO PUSH3 0x10D JUMPI PUSH3 0x10C PUSH3 0x330 JUMP JUMPDEST JUMPDEST MUL OR SWAP1 SSTORE POP TIMESTAMP PUSH1 0x2 DUP2 SWAP1 SSTORE POP DUP1 PUSH2 0x140 DUP2 DUP2 MSTORE POP POP POP POP POP POP POP POP PUSH3 0x35F JUMP JUMPDEST PUSH1 0x0 DUP1 REVERT JUMPDEST PUSH1 0x0 PUSH20 0xFFFFFFFFFFFFFFFFFFFFFFFFFFFFFFFFFFFFFFFF DUP3 AND SWAP1 POP SWAP2 SWAP1 POP JUMP JUMPDEST PUSH1 0x0 PUSH3 0x160 DUP3 PUSH3 0x133 JUMP JUMPDEST SWAP1 POP SWAP2 SWAP1 POP JUMP JUMPDEST PUSH3 0x172 DUP2 PUSH3 0x153 JUMP JUMPDEST DUP2 EQ PUSH3 0x17E JUMPI PUSH1 0x0 DUP1 REVERT JUMPDEST POP JUMP JUMPDEST PUSH1 0x0 DUP2 MLOAD SWAP1 POP PUSH3 0x192 DUP2 PUSH3 0x167 JUMP JUMPDEST SWAP3 SWAP2 POP POP JUMP JUMPDEST PUSH1 0x0 DUP2 SWAP1 POP SWAP2 SWAP1 POP JUMP JUMPDEST PUSH3 0x1AD DUP2 PUSH3 0x198 JUMP JUMPDEST DUP2 EQ PUSH3 0x1B9 JUMPI PUSH1 0x0 DUP1 REVERT JUMPDEST POP JUMP JUMPDEST PUSH1 0x0 DUP2 MLOAD SWAP1 POP PUSH3 0x1CD DUP2 PUSH3 0x1A2 JUMP JUMPDEST SWAP3 SWAP2 POP POP JUMP JUMPDEST PUSH1 0x0 DUP2 SWAP1 POP SWAP2 SWAP1 POP JUMP JUMPDEST PUSH3 0x1E8 DUP2 PUSH3 0x1D3 JUMP JUMPDEST DUP2 EQ PUSH3 0x1F4 JUMPI PUSH1 0x0 DUP1 REVERT JUMPDEST POP JUMP JUMPDEST PUSH1 0x0 DUP2 MLOAD SWAP1 POP PUSH3 0x208 DUP2 PUSH3 0x1DD JUMP JUMPDEST SWAP3 SWAP2 POP POP JUMP JUMPDEST PUSH1 0x0 PUSH8 0xFFFFFFFFFFFFFFFF DUP3 AND SWAP1 POP SWAP2 SWAP1 POP JUMP JUMPDEST PUSH3 0x22D DUP2 PUSH3 0x20E JUMP JUMPDEST DUP2 EQ PUSH3 0x239 JUMPI PUSH1 0x0 DUP1 REVERT JUMPDEST POP JUMP JUMPDEST PUSH1 0x0 DUP2 MLOAD SWAP1 POP PUSH3 0x24D DUP2 PUSH3 0x222 JUMP JUMPDEST SWAP3 SWAP2 POP POP JUMP JUMPDEST PUSH1 0x0 PUSH4 0xFFFFFFFF DUP3 AND SWAP1 POP SWAP2 SWAP1 POP JUMP JUMPDEST PUSH3 0x26E DUP2 PUSH3 0x253 JUMP JUMPDEST DUP2 EQ PUSH3 0x27A JUMPI PUSH1 0x0 DUP1 REVERT JUMPDEST POP JUMP JUMPDEST PUSH1 0x0 DUP2 MLOAD SWAP1 POP PUSH3 0x28E DUP2 PUSH3 0x263 JUMP JUMPDEST SWAP3 SWAP2 POP POP JUMP JUMPDEST PUSH1 0x0 DUP1 PUSH1 0x0 DUP1 PUSH1 0x0 DUP1 PUSH1 0xC0 DUP8 DUP10 SUB SLT ISZERO PUSH3 0x2B4 JUMPI PUSH3 0x2B3 PUSH3 0x12E JUMP JUMPDEST JUMPDEST PUSH1 0x0 PUSH3 0x2C4 DUP10 DUP3 DUP11 ADD PUSH3 0x181 JUMP JUMPDEST SWAP7 POP POP PUSH1 0x20 PUSH3 0x2D7 DUP10 DUP3 DUP11 ADD PUSH3 0x1BC JUMP JUMPDEST SWAP6 POP POP PUSH1 0x40 PUSH3 0x2EA DUP10 DUP3 DUP11 ADD PUSH3 0x1F7 JUMP JUMPDEST SWAP5 POP POP PUSH1 0x60 PUSH3 0x2FD DUP10 DUP3 DUP11 ADD PUSH3 0x23C JUMP JUMPDEST SWAP4 POP POP PUSH1 0x80 PUSH3 0x310 DUP10 DUP3 DUP11 ADD PUSH3 0x27D JUMP JUMPDEST SWAP3 POP POP PUSH1 0xA0 PUSH3 0x323 DUP10 DUP3 DUP11 ADD PUSH3 0x1BC JUMP JUMPDEST SWAP2 POP POP SWAP3 SWAP6 POP SWAP3 SWAP6 POP SWAP3 SWAP6 JUMP JUMPDEST PUSH32 0x4E487B7100000000000000000000000000000000000000000000000000000000 PUSH1 0x0 MSTORE PUSH1 0x21 PUSH1 0x4 MSTORE PUSH1 0x24 PUSH1 0x0 REVERT JUMPDEST PUSH1 0x80 MLOAD PUSH1 0xA0 MLOAD PUSH1 0xC0 MLOAD PUSH1 0xE0 MLOAD PUSH2 0x100 MLOAD PUSH2 0x120 MLOAD PUSH2 0x140 MLOAD PUSH2 0x1318 PUSH3 0x3C8 PUSH1 0x0 CODECOPY PUSH1 0x0 PUSH2 0x6E0 ADD MSTORE PUSH1 0x0 PUSH2 0x59C ADD MSTORE PUSH1 0x0 PUSH2 0x579 ADD MSTORE PUSH1 0x0 PUSH2 0x558 ADD MSTORE PUSH1 0x0 PUSH2 0x51C ADD MSTORE PUSH1 0x0 DUP2 DUP2 PUSH2 0x212 ADD MSTORE PUSH2 0x2F8 ADD MSTORE PUSH1 0x0 DUP2 DUP2 PUSH2 0x238 ADD MSTORE PUSH2 0x28C ADD MSTORE PUSH2 0x1318 PUSH1 0x0 RETURN INVALID PUSH1 0x80 PUSH1 0x40 MSTORE PUSH1 0x4 CALLDATASIZE LT PUSH2 0x86 JUMPI PUSH1 0x0 CALLDATALOAD PUSH1 0xE0 SHR DUP1 PUSH4 0x473F1DDC GT PUSH2 0x59 JUMPI DUP1 PUSH4 0x473F1DDC EQ PUSH2 0x112 JUMPI DUP1 PUSH4 0x53A2C19A EQ PUSH2 0x13D JUMPI DUP1 PUSH4 0x5E6C102E EQ PUSH2 0x168 JUMPI DUP1 PUSH4 0x8A78DA41 EQ PUSH2 0x1A6 JUMPI DUP1 PUSH4 0xE55AE4E8 EQ PUSH2 0x1D1 JUMPI PUSH2 0x86 JUMP JUMPDEST DUP1 PUSH4 0x9BC33A7 EQ PUSH2 0x8B JUMPI DUP1 PUSH4 0x1FE543E3 EQ PUSH2 0xB6 JUMPI DUP1 PUSH4 0x2CFCC539 EQ PUSH2 0xDF JUMPI DUP1 PUSH4 0x4585E33B EQ PUSH2 0xE9 JUMPI JUMPDEST PUSH1 0x0 DUP1 REVERT JUMPDEST CALLVALUE DUP1 ISZERO PUSH2 0x97 JUMPI PUSH1 0x0 DUP1 REVERT JUMPDEST POP PUSH2 0xA0 PUSH2 0x20E JUMP JUMPDEST PUSH1 0x40 MLOAD PUSH2 0xAD SWAP2 SWAP1 PUSH2 0xA99 JUMP JUMPDEST PUSH1 0x40 MLOAD DUP1 SWAP2 SUB SWAP1 RETURN JUMPDEST CALLVALUE DUP1 ISZERO PUSH2 0xC2 JUMPI PUSH1 0x0 DUP1 REVERT JUMPDEST POP PUSH2 0xDD PUSH1 0x4 DUP1 CALLDATASIZE SUB DUP2 ADD SWAP1 PUSH2 0xD8 SWAP2 SWAP1 PUSH2 0xC4D JUMP JUMPDEST PUSH2 0x236 JUMP JUMPDEST STOP JUMPDEST PUSH2 0xE7 PUSH2 0x2F6 JUMP JUMPDEST STOP JUMPDEST CALLVALUE DUP1 ISZERO PUSH2 0xF5 JUMPI PUSH1 0x0 DUP1 REVERT JUMPDEST POP PUSH2 0x110 PUSH1 0x4 DUP1 CALLDATASIZE SUB DUP2 ADD SWAP1 PUSH2 0x10B SWAP2 SWAP1 PUSH2 0xD04 JUMP JUMPDEST PUSH2 0x465 JUMP JUMPDEST STOP JUMPDEST CALLVALUE DUP1 ISZERO PUSH2 0x11E JUMPI PUSH1 0x0 DUP1 REVERT JUMPDEST POP PUSH2 0x127 PUSH2 0x664 JUMP JUMPDEST PUSH1 0x40 MLOAD PUSH2 0x134 SWAP2 SWAP1 PUSH2 0xD92 JUMP JUMPDEST PUSH1 0x40 MLOAD DUP1 SWAP2 SUB SWAP1 RETURN JUMPDEST CALLVALUE DUP1 ISZERO PUSH2 0x149 JUMPI PUSH1 0x0 DUP1 REVERT JUMPDEST POP PUSH2 0x152 PUSH2 0x68E JUMP JUMPDEST PUSH1 0x40 MLOAD PUSH2 0x15F SWAP2 SWAP1 PUSH2 0xA99 JUMP JUMPDEST PUSH1 0x40 MLOAD DUP1 SWAP2 SUB SWAP1 RETURN JUMPDEST CALLVALUE DUP1 ISZERO PUSH2 0x174 JUMPI PUSH1 0x0 DUP1 REVERT JUMPDEST POP PUSH2 0x18F PUSH1 0x4 DUP1 CALLDATASIZE SUB DUP2 ADD SWAP1 PUSH2 0x18A SWAP2 SWAP1 PUSH2 0xE62 JUMP JUMPDEST PUSH2 0x69D JUMP JUMPDEST PUSH1 0x40 MLOAD PUSH2 0x19D SWAP3 SWAP2 SWAP1 PUSH2 0xF4E JUMP JUMPDEST PUSH1 0x40 MLOAD DUP1 SWAP2 SUB SWAP1 RETURN JUMPDEST CALLVALUE DUP1 ISZERO PUSH2 0x1B2 JUMPI PUSH1 0x0 DUP1 REVERT JUMPDEST POP PUSH2 0x1BB PUSH2 0x74A JUMP JUMPDEST PUSH1 0x40 MLOAD PUSH2 0x1C8 SWAP2 SWAP1 PUSH2 0xFF5 JUMP JUMPDEST PUSH1 0x40 MLOAD DUP1 SWAP2 SUB SWAP1 RETURN JUMPDEST CALLVALUE DUP1 ISZERO PUSH2 0x1DD JUMPI PUSH1 0x0 DUP1 REVERT JUMPDEST POP PUSH2 0x1F8 PUSH1 0x4 DUP1 CALLDATASIZE SUB DUP2 ADD SWAP1 PUSH2 0x1F3 SWAP2 SWAP1 PUSH2 0x1010 JUMP JUMPDEST PUSH2 0x761 JUMP JUMPDEST PUSH1 0x40 MLOAD PUSH2 0x205 SWAP2 SWAP1 PUSH2 0xD92 JUMP JUMPDEST PUSH1 0x40 MLOAD DUP1 SWAP2 SUB SWAP1 RETURN JUMPDEST PUSH1 0x0 PUSH32 0x0 SWAP1 POP SWAP1 JUMP JUMPDEST PUSH32 0x0 PUSH20 0xFFFFFFFFFFFFFFFFFFFFFFFFFFFFFFFFFFFFFFFF AND CALLER PUSH20 0xFFFFFFFFFFFFFFFFFFFFFFFFFFFFFFFFFFFFFFFF AND EQ PUSH2 0x2E8 JUMPI CALLER PUSH32 0x0 PUSH1 0x40 MLOAD PUSH32 0x1CF993F400000000000000000000000000000000000000000000000000000000 DUP2 MSTORE PUSH1 0x4 ADD PUSH2 0x2DF SWAP3 SWAP2 SWAP1 PUSH2 0x103D JUMP JUMPDEST PUSH1 0x40 MLOAD DUP1 SWAP2 SUB SWAP1 REVERT JUMPDEST PUSH2 0x2F2 DUP3 DUP3 PUSH2 0x7A8 JUMP JUMPDEST POP POP JUMP JUMPDEST PUSH32 0x0 CALLVALUE LT ISZERO PUSH2 0x350 JUMPI PUSH1 0x40 MLOAD PUSH32 0xBD4E069500000000000000000000000000000000000000000000000000000000 DUP2 MSTORE PUSH1 0x4 ADD PUSH1 0x40 MLOAD DUP1 SWAP2 SUB SWAP1 REVERT JUMPDEST PUSH1 0x0 PUSH1 0x1 DUP2 GT ISZERO PUSH2 0x364 JUMPI PUSH2 0x363 PUSH2 0xF7E JUMP JUMPDEST JUMPDEST PUSH1 0x1 PUSH1 0x14 SWAP1 SLOAD SWAP1 PUSH2 0x100 EXP SWAP1 DIV PUSH1 0xFF AND PUSH1 0x1 DUP2 GT ISZERO PUSH2 0x386 JUMPI PUSH2 0x385 PUSH2 0xF7E JUMP JUMPDEST JUMPDEST EQ PUSH2 0x3BD JUMPI PUSH1 0x40 MLOAD PUSH32 0x1425571C00000000000000000000000000000000000000000000000000000000 DUP2 MSTORE PUSH1 0x4 ADD PUSH1 0x40 MLOAD DUP1 SWAP2 SUB SWAP1 REVERT JUMPDEST PUSH1 0x0 CALLER SWAP1 DUP1 PUSH1 0x1 DUP2 SLOAD ADD DUP1 DUP3 SSTORE DUP1 SWAP2 POP POP PUSH1 0x1 SWAP1 SUB SWAP1 PUSH1 0x0 MSTORE PUSH1 0x20 PUSH1 0x0 KECCAK256 ADD PUSH1 0x0 SWAP1 SWAP2 SWAP1 SWAP2 SWAP1 SWAP2 PUSH2 0x100 EXP DUP2 SLOAD DUP2 PUSH20 0xFFFFFFFFFFFFFFFFFFFFFFFFFFFFFFFFFFFFFFFF MUL NOT AND SWAP1 DUP4 PUSH20 0xFFFFFFFFFFFFFFFFFFFFFFFFFFFFFFFFFFFFFFFF AND MUL OR SWAP1 SSTORE POP CALLER PUSH20 0xFFFFFFFFFFFFFFFFFFFFFFFFFFFFFFFFFFFFFFFF AND PUSH32 0x805E1D667BDDB8A95F0F09880CF94F403FB596CE79928D9F29B74203BA284D4 PUSH1 0x40 MLOAD PUSH1 0x40 MLOAD DUP1 SWAP2 SUB SWAP1 LOG2 JUMP JUMPDEST PUSH1 0x0 PUSH2 0x47F PUSH1 0x40 MLOAD DUP1 PUSH1 0x20 ADD PUSH1 0x40 MSTORE DUP1 PUSH1 0x0 DUP2 MSTORE POP PUSH2 0x69D JUMP JUMPDEST POP SWAP1 POP DUP1 PUSH2 0x4EE JUMPI SELFBALANCE PUSH1 0x0 DUP1 SLOAD SWAP1 POP PUSH1 0x1 PUSH1 0x14 SWAP1 SLOAD SWAP1 PUSH2 0x100 EXP SWAP1 DIV PUSH1 0xFF AND PUSH1 0x1 DUP2 GT ISZERO PUSH2 0x4B0 JUMPI PUSH2 0x4AF PUSH2 0xF7E JUMP JUMPDEST JUMPDEST PUSH1 0x40 MLOAD PUSH32 0x584327AA00000000000000000000000000000000000000000000000000000000 DUP2 MSTORE PUSH1 0x4 ADD PUSH2 0x4E5 SWAP4 SWAP3 SWAP2 SWAP1 PUSH2 0x1066 JUMP JUMPDEST PUSH1 0x40 MLOAD DUP1 SWAP2 SUB SWAP1 REVERT JUMPDEST PUSH1 0x1 DUP1 PUSH1 0x14 PUSH2 0x100 EXP DUP2 SLOAD DUP2 PUSH1 0xFF MUL NOT AND SWAP1 DUP4 PUSH1 0x1 DUP2 GT ISZERO PUSH2 0x513 JUMPI PUSH2 0x512 PUSH2 0xF7E JUMP JUMPDEST JUMPDEST MUL OR SWAP1 SSTORE POP PUSH1 0x0 PUSH32 0x0 PUSH20 0xFFFFFFFFFFFFFFFFFFFFFFFFFFFFFFFFFFFFFFFF AND PUSH4 0x5D3B1D30 PUSH32 0x0 PUSH32 0x0 PUSH1 0x3 PUSH32 0x0 PUSH1 0x1 PUSH1 0x40 MLOAD DUP7 PUSH4 0xFFFFFFFF AND PUSH1 0xE0 SHL DUP2 MSTORE PUSH1 0x4 ADD PUSH2 0x5DD SWAP6 SWAP5 SWAP4 SWAP3 SWAP2 SWAP1 PUSH2 0x1115 JUMP JUMPDEST PUSH1 0x20 PUSH1 0x40 MLOAD DUP1 DUP4 SUB DUP2 PUSH1 0x0 DUP8 DUP1 EXTCODESIZE ISZERO DUP1 ISZERO PUSH2 0x5F7 JUMPI PUSH1 0x0 DUP1 REVERT JUMPDEST POP GAS CALL ISZERO DUP1 ISZERO PUSH2 0x60B JUMPI RETURNDATASIZE PUSH1 0x0 DUP1 RETURNDATACOPY RETURNDATASIZE PUSH1 0x0 REVERT JUMPDEST POP POP POP POP PUSH1 0x40 MLOAD RETURNDATASIZE PUSH1 0x1F NOT PUSH1 0x1F DUP3 ADD AND DUP3 ADD DUP1 PUSH1 0x40 MSTORE POP DUP2 ADD SWAP1 PUSH2 0x62F SWAP2 SWAP1 PUSH2 0x117D JUMP JUMPDEST SWAP1 POP DUP1 PUSH32 0xCD6E45C8998311CAB7E9D4385596CAC867E20A0587194B954FA3A731C93CE78B PUSH1 0x40 MLOAD PUSH1 0x40 MLOAD DUP1 SWAP2 SUB SWAP1 LOG2 POP POP POP POP JUMP JUMPDEST PUSH1 0x0 PUSH1 0x1 PUSH1 0x0 SWAP1 SLOAD SWAP1 PUSH2 0x100 EXP SWAP1 DIV PUSH20 0xFFFFFFFFFFFFFFFFFFFFFFFFFFFFFFFFFFFFFFFF AND SWAP1 POP SWAP1 JUMP JUMPDEST PUSH1 0x0 PUSH1 0x1 PUSH4 0xFFFFFFFF AND SWAP1 POP SWAP1 JUMP JUMPDEST PUSH1 0x0 PUSH1 0x60 PUSH1 0x0 PUSH1 0x1 PUSH1 0x14 SWAP1 SLOAD SWAP1 PUSH2 0x100 EXP SWAP1 DIV PUSH1 0xFF AND PUSH1 0x1 DUP2 GT ISZERO PUSH2 0x6C5 JUMPI PUSH2 0x6C4 PUSH2 0xF7E JUMP JUMPDEST JUMPDEST PUSH1 0x0 PUSH1 0x1 DUP2 GT ISZERO PUSH2 0x6D9 JUMPI PUSH2 0x6D8 PUSH2 0xF7E JUMP JUMPDEST JUMPDEST EQ SWAP1 POP PUSH1 0x0 PUSH32 0x0 PUSH1 0x2 SLOAD TIMESTAMP PUSH2 0x70D SWAP2 SWAP1 PUSH2 0x11D9 JUMP JUMPDEST GT SWAP1 POP PUSH1 0x0 DUP1 PUSH1 0x0 DUP1 SLOAD SWAP1 POP GT SWAP1 POP PUSH1 0x0 DUP1 SELFBALANCE GT SWAP1 POP DUP4 DUP1 ISZERO PUSH2 0x72D JUMPI POP DUP3 JUMPDEST DUP1 ISZERO PUSH2 0x736 JUMPI POP DUP2 JUMPDEST DUP1 ISZERO PUSH2 0x73F JUMPI POP DUP1 JUMPDEST SWAP6 POP POP POP POP POP SWAP2 POP SWAP2 JUMP JUMPDEST PUSH1 0x0 PUSH1 0x1 PUSH1 0x14 SWAP1 SLOAD SWAP1 PUSH2 0x100 EXP SWAP1 DIV PUSH1 0xFF AND SWAP1 POP SWAP1 JUMP JUMPDEST PUSH1 0x0 DUP1 DUP3 DUP2 SLOAD DUP2 LT PUSH2 0x776 JUMPI PUSH2 0x775 PUSH2 0x120D JUMP JUMPDEST JUMPDEST SWAP1 PUSH1 0x0 MSTORE PUSH1 0x20 PUSH1 0x0 KECCAK256 ADD PUSH1 0x0 SWAP1 SLOAD SWAP1 PUSH2 0x100 EXP SWAP1 DIV PUSH20 0xFFFFFFFFFFFFFFFFFFFFFFFFFFFFFFFFFFFFFFFF AND SWAP1 POP SWAP2 SWAP1 POP JUMP JUMPDEST PUSH1 0x0 DUP1 DUP1 SLOAD SWAP1 POP DUP3 PUSH1 0x0 DUP2 MLOAD DUP2 LT PUSH2 0x7C3 JUMPI PUSH2 0x7C2 PUSH2 0x120D JUMP JUMPDEST JUMPDEST PUSH1 0x20 MUL PUSH1 0x20 ADD ADD MLOAD PUSH2 0x7D5 SWAP2 SWAP1 PUSH2 0x126B JUMP JUMPDEST SWAP1 POP PUSH1 0x0 DUP1 DUP3 DUP2 SLOAD DUP2 LT PUSH2 0x7EC JUMPI PUSH2 0x7EB PUSH2 0x120D JUMP JUMPDEST JUMPDEST SWAP1 PUSH1 0x0 MSTORE PUSH1 0x20 PUSH1 0x0 KECCAK256 ADD PUSH1 0x0 SWAP1 SLOAD SWAP1 PUSH2 0x100 EXP SWAP1 DIV PUSH20 0xFFFFFFFFFFFFFFFFFFFFFFFFFFFFFFFFFFFFFFFF AND SWAP1 POP DUP1 PUSH1 0x1 PUSH1 0x0 PUSH2 0x100 EXP DUP2 SLOAD DUP2 PUSH20 0xFFFFFFFFFFFFFFFFFFFFFFFFFFFFFFFFFFFFFFFF MUL NOT AND SWAP1 DUP4 PUSH20 0xFFFFFFFFFFFFFFFFFFFFFFFFFFFFFFFFFFFFFFFF AND MUL OR SWAP1 SSTORE POP PUSH1 0x0 PUSH1 0x1 PUSH1 0x14 PUSH2 0x100 EXP DUP2 SLOAD DUP2 PUSH1 0xFF MUL NOT AND SWAP1 DUP4 PUSH1 0x1 DUP2 GT ISZERO PUSH2 0x880 JUMPI PUSH2 0x87F PUSH2 0xF7E JUMP JUMPDEST JUMPDEST MUL OR SWAP1 SSTORE POP PUSH1 0x0 PUSH8 0xFFFFFFFFFFFFFFFF DUP2 GT ISZERO PUSH2 0x8A0 JUMPI PUSH2 0x89F PUSH2 0xB0A JUMP JUMPDEST JUMPDEST PUSH1 0x40 MLOAD SWAP1 DUP1 DUP3 MSTORE DUP1 PUSH1 0x20 MUL PUSH1 0x20 ADD DUP3 ADD PUSH1 0x40 MSTORE DUP1 ISZERO PUSH2 0x8CE JUMPI DUP2 PUSH1 0x20 ADD PUSH1 0x20 DUP3 MUL DUP1 CALLDATASIZE DUP4 CALLDATACOPY DUP1 DUP3 ADD SWAP2 POP POP SWAP1 POP JUMPDEST POP PUSH1 0x0 SWAP1 DUP1 MLOAD SWAP1 PUSH1 0x20 ADD SWAP1 PUSH2 0x8E4 SWAP3 SWAP2 SWAP1 PUSH2 0x9D9 JUMP JUMPDEST POP TIMESTAMP PUSH1 0x2 DUP2 SWAP1 SSTORE POP PUSH1 0x0 DUP2 PUSH20 0xFFFFFFFFFFFFFFFFFFFFFFFFFFFFFFFFFFFFFFFF AND SELFBALANCE PUSH1 0x40 MLOAD PUSH2 0x912 SWAP1 PUSH2 0x12CD JUMP JUMPDEST PUSH1 0x0 PUSH1 0x40 MLOAD DUP1 DUP4 SUB DUP2 DUP6 DUP8 GAS CALL SWAP3 POP POP POP RETURNDATASIZE DUP1 PUSH1 0x0 DUP2 EQ PUSH2 0x94F JUMPI PUSH1 0x40 MLOAD SWAP2 POP PUSH1 0x1F NOT PUSH1 0x3F RETURNDATASIZE ADD AND DUP3 ADD PUSH1 0x40 MSTORE RETURNDATASIZE DUP3 MSTORE RETURNDATASIZE PUSH1 0x0 PUSH1 0x20 DUP5 ADD RETURNDATACOPY PUSH2 0x954 JUMP JUMPDEST PUSH1 0x60 SWAP2 POP JUMPDEST POP POP SWAP1 POP DUP1 PUSH2 0x98F JUMPI PUSH1 0x40 MLOAD PUSH32 0xA1D04B3900000000000000000000000000000000000000000000000000000000 DUP2 MSTORE PUSH1 0x4 ADD PUSH1 0x40 MLOAD DUP1 SWAP2 SUB SWAP1 REVERT JUMPDEST DUP2 PUSH20 0xFFFFFFFFFFFFFFFFFFFFFFFFFFFFFFFFFFFFFFFF AND PUSH32 0x5B690EC4A06FE979403046EAEEA5B3CE38524683C3001F662C8B5A829632F7DF PUSH1 0x40 MLOAD PUSH1 0x40 MLOAD DUP1 SWAP2 SUB SWAP1 LOG2 POP POP POP POP POP JUMP JUMPDEST DUP3 DUP1 SLOAD DUP3 DUP3 SSTORE SWAP1 PUSH1 0x0 MSTORE PUSH1 0x20 PUSH1 0x0 KECCAK256 SWAP1 DUP2 ADD SWAP3 DUP3 ISZERO PUSH2 0xA52 JUMPI SWAP2 PUSH1 0x20 MUL DUP3 ADD JUMPDEST DUP3 DUP2 GT ISZERO PUSH2 0xA51 JUMPI DUP3 MLOAD DUP3 PUSH1 0x0 PUSH2 0x100 EXP DUP2 SLOAD DUP2 PUSH20 0xFFFFFFFFFFFFFFFFFFFFFFFFFFFFFFFFFFFFFFFF MUL NOT AND SWAP1 DUP4 PUSH20 0xFFFFFFFFFFFFFFFFFFFFFFFFFFFFFFFFFFFFFFFF AND MUL OR SWAP1 SSTORE POP SWAP2 PUSH1 0x20 ADD SWAP2 SWAP1 PUSH1 0x1 ADD SWAP1 PUSH2 0x9F9 JUMP JUMPDEST JUMPDEST POP SWAP1 POP PUSH2 0xA5F SWAP2 SWAP1 PUSH2 0xA63 JUMP JUMPDEST POP SWAP1 JUMP JUMPDEST JUMPDEST DUP1 DUP3 GT ISZERO PUSH2 0xA7C JUMPI PUSH1 0x0 DUP2 PUSH1 0x0 SWAP1 SSTORE POP PUSH1 0x1 ADD PUSH2 0xA64 JUMP JUMPDEST POP SWAP1 JUMP JUMPDEST PUSH1 0x0 DUP2 SWAP1 POP SWAP2 SWAP1 POP JUMP JUMPDEST PUSH2 0xA93 DUP2 PUSH2 0xA80 JUMP JUMPDEST DUP3 MSTORE POP POP JUMP JUMPDEST PUSH1 0x0 PUSH1 0x20 DUP3 ADD SWAP1 POP PUSH2 0xAAE PUSH1 0x0 DUP4 ADD DUP5 PUSH2 0xA8A JUMP JUMPDEST SWAP3 SWAP2 POP POP JUMP JUMPDEST PUSH1 0x0 PUSH1 0x40 MLOAD SWAP1 POP SWAP1 JUMP JUMPDEST PUSH1 0x0 DUP1 REVERT JUMPDEST PUSH1 0x0 DUP1 REVERT JUMPDEST PUSH2 0xAD1 DUP2 PUSH2 0xA80 JUMP JUMPDEST DUP2 EQ PUSH2 0xADC JUMPI PUSH1 0x0 DUP1 REVERT JUMPDEST POP JUMP JUMPDEST PUSH1 0x0 DUP2 CALLDATALOAD SWAP1 POP PUSH2 0xAEE DUP2 PUSH2 0xAC8 JUMP JUMPDEST SWAP3 SWAP2 POP POP JUMP JUMPDEST PUSH1 0x0 DUP1 REVERT JUMPDEST PUSH1 0x0 PUSH1 0x1F NOT PUSH1 0x1F DUP4 ADD AND SWAP1 POP SWAP2 SWAP1 POP JUMP JUMPDEST PUSH32 0x4E487B7100000000000000000000000000000000000000000000000000000000 PUSH1 0x0 MSTORE PUSH1 0x41 PUSH1 0x4 MSTORE PUSH1 0x24 PUSH1 0x0 REVERT JUMPDEST PUSH2 0xB42 DUP3 PUSH2 0xAF9 JUMP JUMPDEST DUP2 ADD DUP2 DUP2 LT PUSH8 0xFFFFFFFFFFFFFFFF DUP3 GT OR ISZERO PUSH2 0xB61 JUMPI PUSH2 0xB60 PUSH2 0xB0A JUMP JUMPDEST JUMPDEST DUP1 PUSH1 0x40 MSTORE POP POP POP JUMP JUMPDEST PUSH1 0x0 PUSH2 0xB74 PUSH2 0xAB4 JUMP JUMPDEST SWAP1 POP PUSH2 0xB80 DUP3 DUP3 PUSH2 0xB39 JUMP JUMPDEST SWAP2 SWAP1 POP JUMP JUMPDEST PUSH1 0x0 PUSH8 0xFFFFFFFFFFFFFFFF DUP3 GT ISZERO PUSH2 0xBA0 JUMPI PUSH2 0xB9F PUSH2 0xB0A JUMP JUMPDEST JUMPDEST PUSH1 0x20 DUP3 MUL SWAP1 POP PUSH1 0x20 DUP2 ADD SWAP1 POP SWAP2 SWAP1 POP JUMP JUMPDEST PUSH1 0x0 DUP1 REVERT JUMPDEST PUSH1 0x0 PUSH2 0xBC9 PUSH2 0xBC4 DUP5 PUSH2 0xB85 JUMP JUMPDEST PUSH2 0xB6A JUMP JUMPDEST SWAP1 POP DUP1 DUP4 DUP3 MSTORE PUSH1 0x20 DUP3 ADD SWAP1 POP PUSH1 0x20 DUP5 MUL DUP4 ADD DUP6 DUP2 GT ISZERO PUSH2 0xBEC JUMPI PUSH2 0xBEB PUSH2 0xBB1 JUMP JUMPDEST JUMPDEST DUP4 JUMPDEST DUP2 DUP2 LT ISZERO PUSH2 0xC15 JUMPI DUP1 PUSH2 0xC01 DUP9 DUP3 PUSH2 0xADF JUMP JUMPDEST DUP5 MSTORE PUSH1 0x20 DUP5 ADD SWAP4 POP POP PUSH1 0x20 DUP2 ADD SWAP1 POP PUSH2 0xBEE JUMP JUMPDEST POP POP POP SWAP4 SWAP3 POP POP POP JUMP JUMPDEST PUSH1 0x0 DUP3 PUSH1 0x1F DUP4 ADD SLT PUSH2 0xC34 JUMPI PUSH2 0xC33 PUSH2 0xAF4 JUMP JUMPDEST JUMPDEST DUP2 CALLDATALOAD PUSH2 0xC44 DUP5 DUP3 PUSH1 0x20 DUP7 ADD PUSH2 0xBB6 JUMP JUMPDEST SWAP2 POP POP SWAP3 SWAP2 POP POP JUMP JUMPDEST PUSH1 0x0 DUP1 PUSH1 0x40 DUP4 DUP6 SUB SLT ISZERO PUSH2 0xC64 JUMPI PUSH2 0xC63 PUSH2 0xABE JUMP JUMPDEST JUMPDEST PUSH1 0x0 PUSH2 0xC72 DUP6 DUP3 DUP7 ADD PUSH2 0xADF JUMP JUMPDEST SWAP3 POP POP PUSH1 0x20 DUP4 ADD CALLDATALOAD PUSH8 0xFFFFFFFFFFFFFFFF DUP2 GT ISZERO PUSH2 0xC93 JUMPI PUSH2 0xC92 PUSH2 0xAC3 JUMP JUMPDEST JUMPDEST PUSH2 0xC9F DUP6 DUP3 DUP7 ADD PUSH2 0xC1F JUMP JUMPDEST SWAP2 POP POP SWAP3 POP SWAP3 SWAP1 POP JUMP JUMPDEST PUSH1 0x0 DUP1 REVERT JUMPDEST PUSH1 0x0 DUP1 DUP4 PUSH1 0x1F DUP5 ADD SLT PUSH2 0xCC4 JUMPI PUSH2 0xCC3 PUSH2 0xAF4 JUMP JUMPDEST JUMPDEST DUP3 CALLDATALOAD SWAP1 POP PUSH8 0xFFFFFFFFFFFFFFFF DUP2 GT ISZERO PUSH2 0xCE1 JUMPI PUSH2 0xCE0 PUSH2 0xCA9 JUMP JUMPDEST JUMPDEST PUSH1 0x20 DUP4 ADD SWAP2 POP DUP4 PUSH1 0x1 DUP3 MUL DUP4 ADD GT ISZERO PUSH2 0xCFD JUMPI PUSH2 0xCFC PUSH2 0xBB1 JUMP JUMPDEST JUMPDEST SWAP3 POP SWAP3 SWAP1 POP JUMP JUMPDEST PUSH1 0x0 DUP1 PUSH1 0x20 DUP4 DUP6 SUB SLT ISZERO PUSH2 0xD1B JUMPI PUSH2 0xD1A PUSH2 0xABE JUMP JUMPDEST JUMPDEST PUSH1 0x0 DUP4 ADD CALLDATALOAD PUSH8 0xFFFFFFFFFFFFFFFF DUP2 GT ISZERO PUSH2 0xD39 JUMPI PUSH2 0xD38 PUSH2 0xAC3 JUMP JUMPDEST JUMPDEST PUSH2 0xD45 DUP6 DUP3 DUP7 ADD PUSH2 0xCAE JUMP JUMPDEST SWAP3 POP SWAP3 POP POP SWAP3 POP SWAP3 SWAP1 POP JUMP JUMPDEST PUSH1 0x0 PUSH20 0xFFFFFFFFFFFFFFFFFFFFFFFFFFFFFFFFFFFFFFFF DUP3 AND SWAP1 POP SWAP2 SWAP1 POP JUMP JUMPDEST PUSH1 0x0 PUSH2 0xD7C DUP3 PUSH2 0xD51 JUMP JUMPDEST SWAP1 POP SWAP2 SWAP1 POP JUMP JUMPDEST PUSH2 0xD8C DUP2 PUSH2 0xD71 JUMP JUMPDEST DUP3 MSTORE POP POP JUMP JUMPDEST PUSH1 0x0 PUSH1 0x20 DUP3 ADD SWAP1 POP PUSH2 0xDA7 PUSH1 0x0 DUP4 ADD DUP5 PUSH2 0xD83 JUMP JUMPDEST SWAP3 SWAP2 POP POP JUMP JUMPDEST PUSH1 0x0 DUP1 REVERT JUMPDEST PUSH1 0x0 PUSH8 0xFFFFFFFFFFFFFFFF DUP3 GT ISZERO PUSH2 0xDCD JUMPI PUSH2 0xDCC PUSH2 0xB0A JUMP JUMPDEST JUMPDEST PUSH2 0xDD6 DUP3 PUSH2 0xAF9 JUMP JUMPDEST SWAP1 POP PUSH1 0x20 DUP2 ADD SWAP1 POP SWAP2 SWAP1 POP JUMP JUMPDEST DUP3 DUP2 DUP4 CALLDATACOPY PUSH1 0x0 DUP4 DUP4 ADD MSTORE POP POP POP JUMP JUMPDEST PUSH1 0x0 PUSH2 0xE05 PUSH2 0xE00 DUP5 PUSH2 0xDB2 JUMP JUMPDEST PUSH2 0xB6A JUMP JUMPDEST SWAP1 POP DUP3 DUP2 MSTORE PUSH1 0x20 DUP2 ADD DUP5 DUP5 DUP5 ADD GT ISZERO PUSH2 0xE21 JUMPI PUSH2 0xE20 PUSH2 0xDAD JUMP JUMPDEST JUMPDEST PUSH2 0xE2C DUP5 DUP3 DUP6 PUSH2 0xDE3 JUMP JUMPDEST POP SWAP4 SWAP3 POP POP POP JUMP JUMPDEST PUSH1 0x0 DUP3 PUSH1 0x1F DUP4 ADD SLT PUSH2 0xE49 JUMPI PUSH2 0xE48 PUSH2 0xAF4 JUMP JUMPDEST JUMPDEST DUP2 CALLDATALOAD PUSH2 0xE59 DUP5 DUP3 PUSH1 0x20 DUP7 ADD PUSH2 0xDF2 JUMP JUMPDEST SWAP2 POP POP SWAP3 SWAP2 POP POP JUMP JUMPDEST PUSH1 0x0 PUSH1 0x20 DUP3 DUP5 SUB SLT ISZERO PUSH2 0xE78 JUMPI PUSH2 0xE77 PUSH2 0xABE JUMP JUMPDEST JUMPDEST PUSH1 0x0 DUP3 ADD CALLDATALOAD PUSH8 0xFFFFFFFFFFFFFFFF DUP2 GT ISZERO PUSH2 0xE96 JUMPI PUSH2 0xE95 PUSH2 0xAC3 JUMP JUMPDEST JUMPDEST PUSH2 0xEA2 DUP5 DUP3 DUP6 ADD PUSH2 0xE34 JUMP JUMPDEST SWAP2 POP POP SWAP3 SWAP2 POP POP JUMP JUMPDEST PUSH1 0x0 DUP2 ISZERO ISZERO SWAP1 POP SWAP2 SWAP1 POP JUMP JUMPDEST PUSH2 0xEC0 DUP2 PUSH2 0xEAB JUMP JUMPDEST DUP3 MSTORE POP POP JUMP JUMPDEST PUSH1 0x0 DUP2 MLOAD SWAP1 POP SWAP2 SWAP1 POP JUMP JUMPDEST PUSH1 0x0 DUP3 DUP3 MSTORE PUSH1 0x20 DUP3 ADD SWAP1 POP SWAP3 SWAP2 POP POP JUMP JUMPDEST PUSH1 0x0 JUMPDEST DUP4 DUP2 LT ISZERO PUSH2 0xF00 JUMPI DUP1 DUP3 ADD MLOAD DUP2 DUP5 ADD MSTORE PUSH1 0x20 DUP2 ADD SWAP1 POP PUSH2 0xEE5 JUMP JUMPDEST DUP4 DUP2 GT ISZERO PUSH2 0xF0F JUMPI PUSH1 0x0 DUP5 DUP5 ADD MSTORE JUMPDEST POP POP POP POP JUMP JUMPDEST PUSH1 0x0 PUSH2 0xF20 DUP3 PUSH2 0xEC6 JUMP JUMPDEST PUSH2 0xF2A DUP2 DUP6 PUSH2 0xED1 JUMP JUMPDEST SWAP4 POP PUSH2 0xF3A DUP2 DUP6 PUSH1 0x20 DUP7 ADD PUSH2 0xEE2 JUMP JUMPDEST PUSH2 0xF43 DUP2 PUSH2 0xAF9 JUMP JUMPDEST DUP5 ADD SWAP2 POP POP SWAP3 SWAP2 POP POP JUMP JUMPDEST PUSH1 0x0 PUSH1 0x40 DUP3 ADD SWAP1 POP PUSH2 0xF63 PUSH1 0x0 DUP4 ADD DUP6 PUSH2 0xEB7 JUMP JUMPDEST DUP2 DUP2 SUB PUSH1 0x20 DUP4 ADD MSTORE PUSH2 0xF75 DUP2 DUP5 PUSH2 0xF15 JUMP JUMPDEST SWAP1 POP SWAP4 SWAP3 POP POP POP JUMP JUMPDEST PUSH32 0x4E487B7100000000000000000000000000000000000000000000000000000000 PUSH1 0x0 MSTORE PUSH1 0x21 PUSH1 0x4 MSTORE PUSH1 0x24 PUSH1 0x0 REVERT JUMPDEST PUSH1 0x2 DUP2 LT PUSH2 0xFBE JUMPI PUSH2 0xFBD PUSH2 0xF7E JUMP JUMPDEST JUMPDEST POP JUMP JUMPDEST PUSH1 0x0 DUP2 SWAP1 POP PUSH2 0xFCF DUP3 PUSH2 0xFAD JUMP JUMPDEST SWAP2 SWAP1 POP JUMP JUMPDEST PUSH1 0x0 PUSH2 0xFDF DUP3 PUSH2 0xFC1 JUMP JUMPDEST SWAP1 POP SWAP2 SWAP1 POP JUMP JUMPDEST PUSH2 0xFEF DUP2 PUSH2 0xFD4 JUMP JUMPDEST DUP3 MSTORE POP POP JUMP JUMPDEST PUSH1 0x0 PUSH1 0x20 DUP3 ADD SWAP1 POP PUSH2 0x100A PUSH1 0x0 DUP4 ADD DUP5 PUSH2 0xFE6 JUMP JUMPDEST SWAP3 SWAP2 POP POP JUMP JUMPDEST PUSH1 0x0 PUSH1 0x20 DUP3 DUP5 SUB SLT ISZERO PUSH2 0x1026 JUMPI PUSH2 0x1025 PUSH2 0xABE JUMP JUMPDEST JUMPDEST PUSH1 0x0 PUSH2 0x1034 DUP5 DUP3 DUP6 ADD PUSH2 0xADF JUMP JUMPDEST SWAP2 POP POP SWAP3 SWAP2 POP POP JUMP JUMPDEST PUSH1 0x0 PUSH1 0x40 DUP3 ADD SWAP1 POP PUSH2 0x1052 PUSH1 0x0 DUP4 ADD DUP6 PUSH2 0xD83 JUMP JUMPDEST PUSH2 0x105F PUSH1 0x20 DUP4 ADD DUP5 PUSH2 0xD83 JUMP JUMPDEST SWAP4 SWAP3 POP POP POP JUMP JUMPDEST PUSH1 0x0 PUSH1 0x60 DUP3 ADD SWAP1 POP PUSH2 0x107B PUSH1 0x0 DUP4 ADD DUP7 PUSH2 0xA8A JUMP JUMPDEST PUSH2 0x1088 PUSH1 0x20 DUP4 ADD DUP6 PUSH2 0xA8A JUMP JUMPDEST PUSH2 0x1095 PUSH1 0x40 DUP4 ADD DUP5 PUSH2 0xA8A JUMP JUMPDEST SWAP5 SWAP4 POP POP POP POP JUMP JUMPDEST PUSH1 0x0 DUP2 SWAP1 POP SWAP2 SWAP1 POP JUMP JUMPDEST PUSH2 0x10B0 DUP2 PUSH2 0x109D JUMP JUMPDEST DUP3 MSTORE POP POP JUMP JUMPDEST PUSH1 0x0 PUSH8 0xFFFFFFFFFFFFFFFF DUP3 AND SWAP1 POP SWAP2 SWAP1 POP JUMP JUMPDEST PUSH2 0x10D3 DUP2 PUSH2 0x10B6 JUMP JUMPDEST DUP3 MSTORE POP POP JUMP JUMPDEST PUSH1 0x0 PUSH2 0xFFFF DUP3 AND SWAP1 POP SWAP2 SWAP1 POP JUMP JUMPDEST PUSH2 0x10F0 DUP2 PUSH2 0x10D9 JUMP JUMPDEST DUP3 MSTORE POP POP JUMP JUMPDEST PUSH1 0x0 PUSH4 0xFFFFFFFF DUP3 AND SWAP1 POP SWAP2 SWAP1 POP JUMP JUMPDEST PUSH2 0x110F DUP2 PUSH2 0x10F6 JUMP JUMPDEST DUP3 MSTORE POP POP JUMP JUMPDEST PUSH1 0x0 PUSH1 0xA0 DUP3 ADD SWAP1 POP PUSH2 0x112A PUSH1 0x0 DUP4 ADD DUP9 PUSH2 0x10A7 JUMP JUMPDEST PUSH2 0x1137 PUSH1 0x20 DUP4 ADD DUP8 PUSH2 0x10CA JUMP JUMPDEST PUSH2 0x1144 PUSH1 0x40 DUP4 ADD DUP7 PUSH2 0x10E7 JUMP JUMPDEST PUSH2 0x1151 PUSH1 0x60 DUP4 ADD DUP6 PUSH2 0x1106 JUMP JUMPDEST PUSH2 0x115E PUSH1 0x80 DUP4 ADD DUP5 PUSH2 0x1106 JUMP JUMPDEST SWAP7 SWAP6 POP POP POP POP POP POP JUMP JUMPDEST PUSH1 0x0 DUP2 MLOAD SWAP1 POP PUSH2 0x1177 DUP2 PUSH2 0xAC8 JUMP JUMPDEST SWAP3 SWAP2 POP POP JUMP JUMPDEST PUSH1 0x0 PUSH1 0x20 DUP3 DUP5 SUB SLT ISZERO PUSH2 0x1193 JUMPI PUSH2 0x1192 PUSH2 0xABE JUMP JUMPDEST JUMPDEST PUSH1 0x0 PUSH2 0x11A1 DUP5 DUP3 DUP6 ADD PUSH2 0x1168 JUMP JUMPDEST SWAP2 POP POP SWAP3 SWAP2 POP POP JUMP JUMPDEST PUSH32 0x4E487B7100000000000000000000000000000000000000000000000000000000 PUSH1 0x0 MSTORE PUSH1 0x11 PUSH1 0x4 MSTORE PUSH1 0x24 PUSH1 0x0 REVERT JUMPDEST PUSH1 0x0 PUSH2 0x11E4 DUP3 PUSH2 0xA80 JUMP JUMPDEST SWAP2 POP PUSH2 0x11EF DUP4 PUSH2 0xA80 JUMP JUMPDEST SWAP3 POP DUP3 DUP3 LT ISZERO PUSH2 0x1202 JUMPI PUSH2 0x1201 PUSH2 0x11AA JUMP JUMPDEST JUMPDEST DUP3 DUP3 SUB SWAP1 POP SWAP3 SWAP2 POP POP JUMP JUMPDEST PUSH32 0x4E487B7100000000000000000000000000000000000000000000000000000000 PUSH1 0x0 MSTORE PUSH1 0x32 PUSH1 0x4 MSTORE PUSH1 0x24 PUSH1 0x0 REVERT JUMPDEST PUSH32 0x4E487B7100000000000000000000000000000000000000000000000000000000 PUSH1 0x0 MSTORE PUSH1 0x12 PUSH1 0x4 MSTORE PUSH1 0x24 PUSH1 0x0 REVERT JUMPDEST PUSH1 0x0 PUSH2 0x1276 DUP3 PUSH2 0xA80 JUMP JUMPDEST SWAP2 POP PUSH2 0x1281 DUP4 PUSH2 0xA80 JUMP JUMPDEST SWAP3 POP DUP3 PUSH2 0x1291 JUMPI PUSH2 0x1290 PUSH2 0x123C JUMP JUMPDEST JUMPDEST DUP3 DUP3 MOD SWAP1 POP SWAP3 SWAP2 POP POP JUMP JUMPDEST PUSH1 0x0 DUP2 SWAP1 POP SWAP3 SWAP2 POP POP JUMP JUMPDEST POP JUMP JUMPDEST PUSH1 0x0 PUSH2 0x12B7 PUSH1 0x0 DUP4 PUSH2 0x129C JUMP JUMPDEST SWAP2 POP PUSH2 0x12C2 DUP3 PUSH2 0x12A7 JUMP JUMPDEST PUSH1 0x0 DUP3 ADD SWAP1 POP SWAP2 SWAP1 POP JUMP JUMPDEST PUSH1 0x0 PUSH2 0x12D8 DUP3 PUSH2 0x12AA JUMP JUMPDEST SWAP2 POP DUP2 SWAP1 POP SWAP2 SWAP1 POP JUMP INVALID LOG2 PUSH5 0x6970667358 0x22 SLT KECCAK256 PUSH15 0x60EF4228C10342A634C9BE60BBEB6B 0x4E PUSH31 0xFE0474AC202B10ECFF12546AD02564736F6C63430008090033000000000000 "},"gasEstimates":{"creation":{"codeDepositCost":"977600","executionCost":"infinite","totalCost":"infinite"},"external":{"checkUpKeep(bytes)":"infinite","enterRaffle()":"infinite","getEntranceFee()":"infinite","getNumWords()":"365","getPlayer(uint256)":"5055","getRaffelState()":"2684","getRecentWinner()":"2522","performUpkeep(bytes)":"infinite","rawFulfillRandomWords(uint256,uint256[])":"infinite"},"internal":{"fulfillRandomWords(uint256,uint256[] memory)":"infinite"}},"methodIdentifiers":{"checkUpKeep(bytes)":"5e6c102e","enterRaffle()":"2cfcc539","getEntranceFee()":"09bc33a7","getNumWords()":"53a2c19a","getPlayer(uint256)":"e55ae4e8","getRaffelState()":"8a78da41","getRecentWinner()":"473f1ddc","performUpkeep(bytes)":"4585e33b","rawFulfillRandomWords(uint256,uint256[])":"1fe543e3"}},"storageLayout":{"storage":[{"astId":195,"contract":"contracts/Raffle.sol:Raffle","label":"s_players","offset":0,"slot":"0","type":"t_array(t_address_payable)dyn_storage"},{"astId":212,"contract":"contracts/Raffle.sol:Raffle","label":"s_recentWinner","offset":0,"slot":"1","type":"t_address"},{"astId":215,"contract":"contracts/Raffle.sol:Raffle","label":"s_raffleState","offset":20,"slot":"1","type":"t_enum(RaffleState)190"},{"astId":217,"contract":"contracts/Raffle.sol:Raffle","label":"s_lastTimestamp","offset":0,"slot":"2","type":"t_uint256"}],"types":{"t_address":{"encoding":"inplace","label":"address","numberOfBytes":"20"},"t_address_payable":{"encoding":"inplace","label":"address payable","numberOfBytes":"20"},"t_array(t_address_payable)dyn_storage":{"base":"t_address_payable","encoding":"dynamic_array","label":"address payable[]","numberOfBytes":"32"},"t_enum(RaffleState)190":{"encoding":"inplace","label":"enum Raffle.RaffleState","numberOfBytes":"1"},"t_uint256":{"encoding":"inplace","label":"uint256","numberOfBytes":"32"}}},"userdoc":{"kind":"user","methods":{},"notice":"This contract is made for creating an untamperable decentralized smart contract","version":1}}}}