{
  "_format": "hh-sol-artifact-1",
  "contractName": "Raffle",
  "sourceName": "contracts/Raffle.sol",
  "abi": [
    {
      "inputs": [
        {
          "internalType": "address",
          "name": "vrfCoordinatorV2",
          "type": "address"
        },
        {
          "internalType": "uint256",
          "name": "entranceFee",
          "type": "uint256"
        },
        {
          "internalType": "bytes32",
          "name": "gasLane",
          "type": "bytes32"
        },
        {
          "internalType": "uint64",
          "name": "subscriptionId",
          "type": "uint64"
        },
        {
          "internalType": "uint32",
          "name": "callbackGasLimit",
          "type": "uint32"
        },
        {
          "internalType": "uint256",
          "name": "interval",
          "type": "uint256"
        }
      ],
      "stateMutability": "nonpayable",
      "type": "constructor"
    },
    {
      "inputs": [
        {
          "internalType": "address",
          "name": "have",
          "type": "address"
        },
        {
          "internalType": "address",
          "name": "want",
          "type": "address"
        }
      ],
      "name": "OnlyCoordinatorCanFulfill",
      "type": "error"
    },
    {
      "inputs": [],
      "name": "Raffle__NotEnoughETHEntered",
      "type": "error"
    },
    {
      "inputs": [],
      "name": "Raffle__NotOpen",
      "type": "error"
    },
    {
      "inputs": [],
      "name": "Raffle__TransferFailed",
      "type": "error"
    },
    {
      "inputs": [
        {
          "internalType": "uint256",
          "name": "currentBalace",
          "type": "uint256"
        },
        {
          "internalType": "uint256",
          "name": "numPlayers",
          "type": "uint256"
        },
        {
          "internalType": "uint256",
          "name": "raffleState",
          "type": "uint256"
        }
      ],
      "name": "Raffle__UpkeepNotNeeded",
      "type": "error"
    },
    {
      "anonymous": false,
      "inputs": [
        {
          "indexed": true,
          "internalType": "address",
          "name": "player",
          "type": "address"
        }
      ],
      "name": "RaffleEnter",
      "type": "event"
    },
    {
      "anonymous": false,
      "inputs": [
        {
          "indexed": true,
          "internalType": "uint256",
          "name": "requestId",
          "type": "uint256"
        }
      ],
      "name": "RequestedRaffleWinner",
      "type": "event"
    },
    {
      "anonymous": false,
      "inputs": [
        {
          "indexed": true,
          "internalType": "address",
          "name": "winner",
          "type": "address"
        }
      ],
      "name": "WinnerPicked",
      "type": "event"
    },
    {
      "inputs": [
        {
          "internalType": "bytes",
          "name": "",
          "type": "bytes"
        }
      ],
      "name": "checkUpKeep",
      "outputs": [
        {
          "internalType": "bool",
          "name": "upkeepNeeded",
          "type": "bool"
        },
        {
          "internalType": "bytes",
          "name": "",
          "type": "bytes"
        }
      ],
      "stateMutability": "nonpayable",
      "type": "function"
    },
    {
      "inputs": [],
      "name": "enterRaffle",
      "outputs": [],
      "stateMutability": "payable",
      "type": "function"
    },
    {
      "inputs": [],
      "name": "getEntranceFee",
      "outputs": [
        {
          "internalType": "uint256",
          "name": "",
          "type": "uint256"
        }
      ],
      "stateMutability": "view",
      "type": "function"
    },
    {
      "inputs": [],
      "name": "getNumWords",
      "outputs": [
        {
          "internalType": "uint256",
          "name": "",
          "type": "uint256"
        }
      ],
      "stateMutability": "view",
      "type": "function"
    },
    {
      "inputs": [
        {
          "internalType": "uint256",
          "name": "index",
          "type": "uint256"
        }
      ],
      "name": "getPlayer",
      "outputs": [
        {
          "internalType": "address",
          "name": "",
          "type": "address"
        }
      ],
      "stateMutability": "view",
      "type": "function"
    },
    {
      "inputs": [],
      "name": "getRaffelState",
      "outputs": [
        {
          "internalType": "enum Raffle.RaffleState",
          "name": "",
          "type": "uint8"
        }
      ],
      "stateMutability": "view",
      "type": "function"
    },
    {
      "inputs": [],
      "name": "getRecentWinner",
      "outputs": [
        {
          "internalType": "address",
          "name": "",
          "type": "address"
        }
      ],
      "stateMutability": "view",
      "type": "function"
    },
    {
      "inputs": [
        {
          "internalType": "bytes",
          "name": "",
          "type": "bytes"
        }
      ],
      "name": "performUpkeep",
      "outputs": [],
      "stateMutability": "nonpayable",
      "type": "function"
    },
    {
      "inputs": [
        {
          "internalType": "uint256",
          "name": "requestId",
          "type": "uint256"
        },
        {
          "internalType": "uint256[]",
          "name": "randomWords",
          "type": "uint256[]"
        }
      ],
      "name": "rawFulfillRandomWords",
      "outputs": [],
      "stateMutability": "nonpayable",
      "type": "function"
    }
  ],
  "bytecode": "0x6101606040523480156200001257600080fd5b50604051620016e0380380620016e0833981810160405281019062000038919062000294565b858073ffffffffffffffffffffffffffffffffffffffff1660808173ffffffffffffffffffffffffffffffffffffffff1681525050508460a081815250508573ffffffffffffffffffffffffffffffffffffffff1660c08173ffffffffffffffffffffffffffffffffffffffff16815250508360e081815250508267ffffffffffffffff166101008167ffffffffffffffff16815250508163ffffffff166101208163ffffffff16815250506000600160146101000a81548160ff021916908360018111156200010d576200010c62000330565b5b0217905550426002819055508061014081815250505050505050506200035f565b600080fd5b600073ffffffffffffffffffffffffffffffffffffffff82169050919050565b6000620001608262000133565b9050919050565b620001728162000153565b81146200017e57600080fd5b50565b600081519050620001928162000167565b92915050565b6000819050919050565b620001ad8162000198565b8114620001b957600080fd5b50565b600081519050620001cd81620001a2565b92915050565b6000819050919050565b620001e881620001d3565b8114620001f457600080fd5b50565b6000815190506200020881620001dd565b92915050565b600067ffffffffffffffff82169050919050565b6200022d816200020e565b81146200023957600080fd5b50565b6000815190506200024d8162000222565b92915050565b600063ffffffff82169050919050565b6200026e8162000253565b81146200027a57600080fd5b50565b6000815190506200028e8162000263565b92915050565b60008060008060008060c08789031215620002b457620002b36200012e565b5b6000620002c489828a0162000181565b9650506020620002d789828a01620001bc565b9550506040620002ea89828a01620001f7565b9450506060620002fd89828a016200023c565b93505060806200031089828a016200027d565b92505060a06200032389828a01620001bc565b9150509295509295509295565b7f4e487b7100000000000000000000000000000000000000000000000000000000600052602160045260246000fd5b60805160a05160c05160e051610100516101205161014051611318620003c860003960006106e00152600061059c01526000610579015260006105580152600061051c01526000818161021201526102f8015260008181610238015261028c01526113186000f3fe6080604052600436106100865760003560e01c8063473f1ddc11610059578063473f1ddc1461011257806353a2c19a1461013d5780635e6c102e146101685780638a78da41146101a6578063e55ae4e8146101d157610086565b806309bc33a71461008b5780631fe543e3146100b65780632cfcc539146100df5780634585e33b146100e9575b600080fd5b34801561009757600080fd5b506100a061020e565b6040516100ad9190610a99565b60405180910390f35b3480156100c257600080fd5b506100dd60048036038101906100d89190610c4d565b610236565b005b6100e76102f6565b005b3480156100f557600080fd5b50610110600480360381019061010b9190610d04565b610465565b005b34801561011e57600080fd5b50610127610664565b6040516101349190610d92565b60405180910390f35b34801561014957600080fd5b5061015261068e565b60405161015f9190610a99565b60405180910390f35b34801561017457600080fd5b5061018f600480360381019061018a9190610e62565b61069d565b60405161019d929190610f4e565b60405180910390f35b3480156101b257600080fd5b506101bb61074a565b6040516101c89190610ff5565b60405180910390f35b3480156101dd57600080fd5b506101f860048036038101906101f39190611010565b610761565b6040516102059190610d92565b60405180910390f35b60007f0000000000000000000000000000000000000000000000000000000000000000905090565b7f000000000000000000000000000000000000000000000000000000000000000073ffffffffffffffffffffffffffffffffffffffff163373ffffffffffffffffffffffffffffffffffffffff16146102e857337f00000000000000000000000000000000000000000000000000000000000000006040517f1cf993f40000000000000000000000000000000000000000000000000000000081526004016102df92919061103d565b60405180910390fd5b6102f282826107a8565b5050565b7f0000000000000000000000000000000000000000000000000000000000000000341015610350576040517fbd4e069500000000000000000000000000000000000000000000000000000000815260040160405180910390fd5b6000600181111561036457610363610f7e565b5b600160149054906101000a900460ff16600181111561038657610385610f7e565b5b146103bd576040517f1425571c00000000000000000000000000000000000000000000000000000000815260040160405180910390fd5b6000339080600181540180825580915050600190039060005260206000200160009091909190916101000a81548173ffffffffffffffffffffffffffffffffffffffff021916908373ffffffffffffffffffffffffffffffffffffffff1602179055503373ffffffffffffffffffffffffffffffffffffffff167f0805e1d667bddb8a95f0f09880cf94f403fb596ce79928d9f29b74203ba284d460405160405180910390a2565b600061047f6040518060200160405280600081525061069d565b509050806104ee5747600080549050600160149054906101000a900460ff1660018111156104b0576104af610f7e565b5b6040517f584327aa0000000000000000000000000000000000000000000000000000000081526004016104e593929190611066565b60405180910390fd5b60018060146101000a81548160ff0219169083600181111561051357610512610f7e565b5b021790555060007f000000000000000000000000000000000000000000000000000000000000000073ffffffffffffffffffffffffffffffffffffffff16635d3b1d307f00000000000000000000000000000000000000000000000000000000000000007f000000000000000000000000000000000000000000000000000000000000000060037f000000000000000000000000000000000000000000000000000000000000000060016040518663ffffffff1660e01b81526004016105dd959493929190611115565b602060405180830381600087803b1580156105f757600080fd5b505af115801561060b573d6000803e3d6000fd5b505050506040513d601f19601f8201168201806040525081019061062f919061117d565b9050807fcd6e45c8998311cab7e9d4385596cac867e20a0587194b954fa3a731c93ce78b60405160405180910390a250505050565b6000600160009054906101000a900473ffffffffffffffffffffffffffffffffffffffff16905090565b6000600163ffffffff16905090565b600060606000600160149054906101000a900460ff1660018111156106c5576106c4610f7e565b5b600060018111156106d9576106d8610f7e565b5b14905060007f00000000000000000000000000000000000000000000000000000000000000006002544261070d91906111d9565b1190506000806000805490501190506000804711905083801561072d5750825b80156107365750815b801561073f5750805b955050505050915091565b6000600160149054906101000a900460ff16905090565b60008082815481106107765761077561120d565b5b9060005260206000200160009054906101000a900473ffffffffffffffffffffffffffffffffffffffff169050919050565b60008080549050826000815181106107c3576107c261120d565b5b60200260200101516107d5919061126b565b905060008082815481106107ec576107eb61120d565b5b9060005260206000200160009054906101000a900473ffffffffffffffffffffffffffffffffffffffff16905080600160006101000a81548173ffffffffffffffffffffffffffffffffffffffff021916908373ffffffffffffffffffffffffffffffffffffffff1602179055506000600160146101000a81548160ff021916908360018111156108805761087f610f7e565b5b0217905550600067ffffffffffffffff8111156108a05761089f610b0a565b5b6040519080825280602002602001820160405280156108ce5781602001602082028036833780820191505090505b50600090805190602001906108e49291906109d9565b504260028190555060008173ffffffffffffffffffffffffffffffffffffffff1647604051610912906112cd565b60006040518083038185875af1925050503d806000811461094f576040519150601f19603f3d011682016040523d82523d6000602084013e610954565b606091505b505090508061098f576040517fa1d04b3900000000000000000000000000000000000000000000000000000000815260040160405180910390fd5b8173ffffffffffffffffffffffffffffffffffffffff167f5b690ec4a06fe979403046eaeea5b3ce38524683c3001f662c8b5a829632f7df60405160405180910390a25050505050565b828054828255906000526020600020908101928215610a52579160200282015b82811115610a515782518260006101000a81548173ffffffffffffffffffffffffffffffffffffffff021916908373ffffffffffffffffffffffffffffffffffffffff160217905550916020019190600101906109f9565b5b509050610a5f9190610a63565b5090565b5b80821115610a7c576000816000905550600101610a64565b5090565b6000819050919050565b610a9381610a80565b82525050565b6000602082019050610aae6000830184610a8a565b92915050565b6000604051905090565b600080fd5b600080fd5b610ad181610a80565b8114610adc57600080fd5b50565b600081359050610aee81610ac8565b92915050565b600080fd5b6000601f19601f8301169050919050565b7f4e487b7100000000000000000000000000000000000000000000000000000000600052604160045260246000fd5b610b4282610af9565b810181811067ffffffffffffffff82111715610b6157610b60610b0a565b5b80604052505050565b6000610b74610ab4565b9050610b808282610b39565b919050565b600067ffffffffffffffff821115610ba057610b9f610b0a565b5b602082029050602081019050919050565b600080fd5b6000610bc9610bc484610b85565b610b6a565b90508083825260208201905060208402830185811115610bec57610beb610bb1565b5b835b81811015610c155780610c018882610adf565b845260208401935050602081019050610bee565b5050509392505050565b600082601f830112610c3457610c33610af4565b5b8135610c44848260208601610bb6565b91505092915050565b60008060408385031215610c6457610c63610abe565b5b6000610c7285828601610adf565b925050602083013567ffffffffffffffff811115610c9357610c92610ac3565b5b610c9f85828601610c1f565b9150509250929050565b600080fd5b60008083601f840112610cc457610cc3610af4565b5b8235905067ffffffffffffffff811115610ce157610ce0610ca9565b5b602083019150836001820283011115610cfd57610cfc610bb1565b5b9250929050565b60008060208385031215610d1b57610d1a610abe565b5b600083013567ffffffffffffffff811115610d3957610d38610ac3565b5b610d4585828601610cae565b92509250509250929050565b600073ffffffffffffffffffffffffffffffffffffffff82169050919050565b6000610d7c82610d51565b9050919050565b610d8c81610d71565b82525050565b6000602082019050610da76000830184610d83565b92915050565b600080fd5b600067ffffffffffffffff821115610dcd57610dcc610b0a565b5b610dd682610af9565b9050602081019050919050565b82818337600083830152505050565b6000610e05610e0084610db2565b610b6a565b905082815260208101848484011115610e2157610e20610dad565b5b610e2c848285610de3565b509392505050565b600082601f830112610e4957610e48610af4565b5b8135610e59848260208601610df2565b91505092915050565b600060208284031215610e7857610e77610abe565b5b600082013567ffffffffffffffff811115610e9657610e95610ac3565b5b610ea284828501610e34565b91505092915050565b60008115159050919050565b610ec081610eab565b82525050565b600081519050919050565b600082825260208201905092915050565b60005b83811015610f00578082015181840152602081019050610ee5565b83811115610f0f576000848401525b50505050565b6000610f2082610ec6565b610f2a8185610ed1565b9350610f3a818560208601610ee2565b610f4381610af9565b840191505092915050565b6000604082019050610f636000830185610eb7565b8181036020830152610f758184610f15565b90509392505050565b7f4e487b7100000000000000000000000000000000000000000000000000000000600052602160045260246000fd5b60028110610fbe57610fbd610f7e565b5b50565b6000819050610fcf82610fad565b919050565b6000610fdf82610fc1565b9050919050565b610fef81610fd4565b82525050565b600060208201905061100a6000830184610fe6565b92915050565b60006020828403121561102657611025610abe565b5b600061103484828501610adf565b91505092915050565b60006040820190506110526000830185610d83565b61105f6020830184610d83565b9392505050565b600060608201905061107b6000830186610a8a565b6110886020830185610a8a565b6110956040830184610a8a565b949350505050565b6000819050919050565b6110b08161109d565b82525050565b600067ffffffffffffffff82169050919050565b6110d3816110b6565b82525050565b600061ffff82169050919050565b6110f0816110d9565b82525050565b600063ffffffff82169050919050565b61110f816110f6565b82525050565b600060a08201905061112a60008301886110a7565b61113760208301876110ca565b61114460408301866110e7565b6111516060830185611106565b61115e6080830184611106565b9695505050505050565b60008151905061117781610ac8565b92915050565b60006020828403121561119357611192610abe565b5b60006111a184828501611168565b91505092915050565b7f4e487b7100000000000000000000000000000000000000000000000000000000600052601160045260246000fd5b60006111e482610a80565b91506111ef83610a80565b925082821015611202576112016111aa565b5b828203905092915050565b7f4e487b7100000000000000000000000000000000000000000000000000000000600052603260045260246000fd5b7f4e487b7100000000000000000000000000000000000000000000000000000000600052601260045260246000fd5b600061127682610a80565b915061128183610a80565b9250826112915761129061123c565b5b828206905092915050565b600081905092915050565b50565b60006112b760008361129c565b91506112c2826112a7565b600082019050919050565b60006112d8826112aa565b915081905091905056fea26469706673582212206e60ef4228c10342a634c9be60bbeb6b4e7efe0474ac202b10ecff12546ad02564736f6c63430008090033",
  "linkReferences": {},
  "deployedLinkReferences": {}
}