{
  "_format": "hh-sol-artifact-1",
  "contractName": "Raffle",
  "sourceName": "contracts/Raffle.sol",
  "abi": [
    {
      "inputs": [
        {
          "internalType": "address",
          "name": "vrfCoordinatorV2",
          "type": "address"
        },
        {
          "internalType": "uint256",
          "name": "entranceFee",
          "type": "uint256"
        },
        {
          "internalType": "bytes32",
          "name": "gasLane",
          "type": "bytes32"
        },
        {
          "internalType": "uint64",
          "name": "subscriptionId",
          "type": "uint64"
        },
        {
          "internalType": "uint32",
          "name": "callbackGasLimit",
          "type": "uint32"
        },
        {
          "internalType": "uint256",
          "name": "interval",
          "type": "uint256"
        }
      ],
      "stateMutability": "nonpayable",
      "type": "constructor"
    },
    {
      "inputs": [
        {
          "internalType": "address",
          "name": "have",
          "type": "address"
        },
        {
          "internalType": "address",
          "name": "want",
          "type": "address"
        }
      ],
      "name": "OnlyCoordinatorCanFulfill",
      "type": "error"
    },
    {
      "inputs": [],
      "name": "Raffle__NotEnoughETHEntered",
      "type": "error"
    },
    {
      "inputs": [],
      "name": "Raffle__NotOpen",
      "type": "error"
    },
    {
      "inputs": [],
      "name": "Raffle__TransferFailed",
      "type": "error"
    },
    {
      "inputs": [
        {
          "internalType": "uint256",
          "name": "currentBalace",
          "type": "uint256"
        },
        {
          "internalType": "uint256",
          "name": "numPlayers",
          "type": "uint256"
        },
        {
          "internalType": "uint256",
          "name": "raffleState",
          "type": "uint256"
        }
      ],
      "name": "Raffle__UpkeepNotNeeded",
      "type": "error"
    },
    {
      "anonymous": false,
      "inputs": [
        {
          "indexed": true,
          "internalType": "address",
          "name": "player",
          "type": "address"
        }
      ],
      "name": "RaffleEnter",
      "type": "event"
    },
    {
      "anonymous": false,
      "inputs": [
        {
          "indexed": true,
          "internalType": "uint256",
          "name": "requestId",
          "type": "uint256"
        }
      ],
      "name": "RequestedRaffleWinner",
      "type": "event"
    },
    {
      "anonymous": false,
      "inputs": [
        {
          "indexed": true,
          "internalType": "address",
          "name": "winner",
          "type": "address"
        }
      ],
      "name": "WinnerPicked",
      "type": "event"
    },
    {
      "inputs": [
        {
          "internalType": "bytes",
          "name": "",
          "type": "bytes"
        }
      ],
      "name": "checkUpKeep",
      "outputs": [
        {
          "internalType": "bool",
          "name": "upkeepNeeded",
          "type": "bool"
        },
        {
          "internalType": "bytes",
          "name": "",
          "type": "bytes"
        }
      ],
      "stateMutability": "nonpayable",
      "type": "function"
    },
    {
      "inputs": [],
      "name": "enterRaffle",
      "outputs": [],
      "stateMutability": "payable",
      "type": "function"
    },
    {
      "inputs": [],
      "name": "getEntranceFee",
      "outputs": [
        {
          "internalType": "uint256",
          "name": "",
          "type": "uint256"
        }
      ],
      "stateMutability": "view",
      "type": "function"
    },
    {
      "inputs": [],
      "name": "getLatestTimeStamp",
      "outputs": [
        {
          "internalType": "uint256",
          "name": "",
          "type": "uint256"
        }
      ],
      "stateMutability": "view",
      "type": "function"
    },
    {
      "inputs": [],
      "name": "getNumWords",
      "outputs": [
        {
          "internalType": "uint256",
          "name": "",
          "type": "uint256"
        }
      ],
      "stateMutability": "pure",
      "type": "function"
    },
    {
      "inputs": [],
      "name": "getNumberOfPlayers",
      "outputs": [
        {
          "internalType": "uint256",
          "name": "",
          "type": "uint256"
        }
      ],
      "stateMutability": "view",
      "type": "function"
    },
    {
      "inputs": [
        {
          "internalType": "uint256",
          "name": "index",
          "type": "uint256"
        }
      ],
      "name": "getPlayer",
      "outputs": [
        {
          "internalType": "address",
          "name": "",
          "type": "address"
        }
      ],
      "stateMutability": "view",
      "type": "function"
    },
    {
      "inputs": [],
      "name": "getRaffelState",
      "outputs": [
        {
          "internalType": "enum Raffle.RaffleState",
          "name": "",
          "type": "uint8"
        }
      ],
      "stateMutability": "view",
      "type": "function"
    },
    {
      "inputs": [],
      "name": "getRecentWinner",
      "outputs": [
        {
          "internalType": "address",
          "name": "",
          "type": "address"
        }
      ],
      "stateMutability": "view",
      "type": "function"
    },
    {
      "inputs": [],
      "name": "getRequestConfirmations",
      "outputs": [
        {
          "internalType": "uint256",
          "name": "",
          "type": "uint256"
        }
      ],
      "stateMutability": "pure",
      "type": "function"
    },
    {
      "inputs": [
        {
          "internalType": "bytes",
          "name": "",
          "type": "bytes"
        }
      ],
      "name": "performUpkeep",
      "outputs": [],
      "stateMutability": "nonpayable",
      "type": "function"
    },
    {
      "inputs": [
        {
          "internalType": "uint256",
          "name": "requestId",
          "type": "uint256"
        },
        {
          "internalType": "uint256[]",
          "name": "randomWords",
          "type": "uint256[]"
        }
      ],
      "name": "rawFulfillRandomWords",
      "outputs": [],
      "stateMutability": "nonpayable",
      "type": "function"
    }
  ],
  "bytecode": "0x6101606040523480156200001257600080fd5b50604051620017a5380380620017a5833981810160405281019062000038919062000294565b858073ffffffffffffffffffffffffffffffffffffffff1660808173ffffffffffffffffffffffffffffffffffffffff1681525050508460a081815250508573ffffffffffffffffffffffffffffffffffffffff1660c08173ffffffffffffffffffffffffffffffffffffffff16815250508360e081815250508267ffffffffffffffff166101008167ffffffffffffffff16815250508163ffffffff166101208163ffffffff16815250506000600160146101000a81548160ff021916908360018111156200010d576200010c62000330565b5b0217905550426002819055508061014081815250505050505050506200035f565b600080fd5b600073ffffffffffffffffffffffffffffffffffffffff82169050919050565b6000620001608262000133565b9050919050565b620001728162000153565b81146200017e57600080fd5b50565b600081519050620001928162000167565b92915050565b6000819050919050565b620001ad8162000198565b8114620001b957600080fd5b50565b600081519050620001cd81620001a2565b92915050565b6000819050919050565b620001e881620001d3565b8114620001f457600080fd5b50565b6000815190506200020881620001dd565b92915050565b600067ffffffffffffffff82169050919050565b6200022d816200020e565b81146200023957600080fd5b50565b6000815190506200024d8162000222565b92915050565b600063ffffffff82169050919050565b6200026e8162000253565b81146200027a57600080fd5b50565b6000815190506200028e8162000263565b92915050565b60008060008060008060c08789031215620002b457620002b36200012e565b5b6000620002c489828a0162000181565b9650506020620002d789828a01620001bc565b9550506040620002ea89828a01620001f7565b9450506060620002fd89828a016200023c565b93505060806200031089828a016200027d565b92505060a06200032389828a01620001bc565b9150509295509295509295565b7f4e487b7100000000000000000000000000000000000000000000000000000000600052602160045260246000fd5b60805160a05160c05160e0516101005161012051610140516113dd620003c8600039600061078c015260006106480152600061062501526000610604015260006105c80152600081816102b4015261039a0152600081816102da015261032e01526113dd6000f3fe6080604052600436106100a75760003560e01c806353a2c19a1161006457806353a2c19a146101895780635e6c102e146101b45780635f1b0fd8146101f25780638a78da411461021d578063e55ae4e814610248578063fd6673f514610285576100a7565b806309bc33a7146100ac5780631fe543e3146100d75780632cfcc53914610100578063320229eb1461010a5780634585e33b14610135578063473f1ddc1461015e575b600080fd5b3480156100b857600080fd5b506100c16102b0565b6040516100ce9190610b5e565b60405180910390f35b3480156100e357600080fd5b506100fe60048036038101906100f99190610d12565b6102d8565b005b610108610398565b005b34801561011657600080fd5b5061011f610507565b60405161012c9190610b5e565b60405180910390f35b34801561014157600080fd5b5061015c60048036038101906101579190610dc9565b610511565b005b34801561016a57600080fd5b50610173610710565b6040516101809190610e57565b60405180910390f35b34801561019557600080fd5b5061019e61073a565b6040516101ab9190610b5e565b60405180910390f35b3480156101c057600080fd5b506101db60048036038101906101d69190610f27565b610749565b6040516101e9929190611013565b60405180910390f35b3480156101fe57600080fd5b506102076107f6565b6040516102149190610b5e565b60405180910390f35b34801561022957600080fd5b50610232610803565b60405161023f91906110ba565b60405180910390f35b34801561025457600080fd5b5061026f600480360381019061026a91906110d5565b61081a565b60405161027c9190610e57565b60405180910390f35b34801561029157600080fd5b5061029a610861565b6040516102a79190610b5e565b60405180910390f35b60007f0000000000000000000000000000000000000000000000000000000000000000905090565b7f000000000000000000000000000000000000000000000000000000000000000073ffffffffffffffffffffffffffffffffffffffff163373ffffffffffffffffffffffffffffffffffffffff161461038a57337f00000000000000000000000000000000000000000000000000000000000000006040517f1cf993f4000000000000000000000000000000000000000000000000000000008152600401610381929190611102565b60405180910390fd5b610394828261086d565b5050565b7f00000000000000000000000000000000000000000000000000000000000000003410156103f2576040517fbd4e069500000000000000000000000000000000000000000000000000000000815260040160405180910390fd5b6000600181111561040657610405611043565b5b600160149054906101000a900460ff16600181111561042857610427611043565b5b1461045f576040517f1425571c00000000000000000000000000000000000000000000000000000000815260040160405180910390fd5b6000339080600181540180825580915050600190039060005260206000200160009091909190916101000a81548173ffffffffffffffffffffffffffffffffffffffff021916908373ffffffffffffffffffffffffffffffffffffffff1602179055503373ffffffffffffffffffffffffffffffffffffffff167f0805e1d667bddb8a95f0f09880cf94f403fb596ce79928d9f29b74203ba284d460405160405180910390a2565b6000600254905090565b600061052b60405180602001604052806000815250610749565b5090508061059a5747600080549050600160149054906101000a900460ff16600181111561055c5761055b611043565b5b6040517f584327aa0000000000000000000000000000000000000000000000000000000081526004016105919392919061112b565b60405180910390fd5b60018060146101000a81548160ff021916908360018111156105bf576105be611043565b5b021790555060007f000000000000000000000000000000000000000000000000000000000000000073ffffffffffffffffffffffffffffffffffffffff16635d3b1d307f00000000000000000000000000000000000000000000000000000000000000007f000000000000000000000000000000000000000000000000000000000000000060037f000000000000000000000000000000000000000000000000000000000000000060016040518663ffffffff1660e01b81526004016106899594939291906111da565b602060405180830381600087803b1580156106a357600080fd5b505af11580156106b7573d6000803e3d6000fd5b505050506040513d601f19601f820116820180604052508101906106db9190611242565b9050807fcd6e45c8998311cab7e9d4385596cac867e20a0587194b954fa3a731c93ce78b60405160405180910390a250505050565b6000600160009054906101000a900473ffffffffffffffffffffffffffffffffffffffff16905090565b6000600163ffffffff16905090565b600060606000600160149054906101000a900460ff16600181111561077157610770611043565b5b6000600181111561078557610784611043565b5b14905060007f0000000000000000000000000000000000000000000000000000000000000000600254426107b9919061129e565b119050600080600080549050119050600080471190508380156107d95750825b80156107e25750815b80156107eb5750805b955050505050915091565b6000600361ffff16905090565b6000600160149054906101000a900460ff16905090565b600080828154811061082f5761082e6112d2565b5b9060005260206000200160009054906101000a900473ffffffffffffffffffffffffffffffffffffffff169050919050565b60008080549050905090565b6000808054905082600081518110610888576108876112d2565b5b602002602001015161089a9190611330565b905060008082815481106108b1576108b06112d2565b5b9060005260206000200160009054906101000a900473ffffffffffffffffffffffffffffffffffffffff16905080600160006101000a81548173ffffffffffffffffffffffffffffffffffffffff021916908373ffffffffffffffffffffffffffffffffffffffff1602179055506000600160146101000a81548160ff0219169083600181111561094557610944611043565b5b0217905550600067ffffffffffffffff81111561096557610964610bcf565b5b6040519080825280602002602001820160405280156109935781602001602082028036833780820191505090505b50600090805190602001906109a9929190610a9e565b504260028190555060008173ffffffffffffffffffffffffffffffffffffffff16476040516109d790611392565b60006040518083038185875af1925050503d8060008114610a14576040519150601f19603f3d011682016040523d82523d6000602084013e610a19565b606091505b5050905080610a54576040517fa1d04b3900000000000000000000000000000000000000000000000000000000815260040160405180910390fd5b8173ffffffffffffffffffffffffffffffffffffffff167f5b690ec4a06fe979403046eaeea5b3ce38524683c3001f662c8b5a829632f7df60405160405180910390a25050505050565b828054828255906000526020600020908101928215610b17579160200282015b82811115610b165782518260006101000a81548173ffffffffffffffffffffffffffffffffffffffff021916908373ffffffffffffffffffffffffffffffffffffffff16021790555091602001919060010190610abe565b5b509050610b249190610b28565b5090565b5b80821115610b41576000816000905550600101610b29565b5090565b6000819050919050565b610b5881610b45565b82525050565b6000602082019050610b736000830184610b4f565b92915050565b6000604051905090565b600080fd5b600080fd5b610b9681610b45565b8114610ba157600080fd5b50565b600081359050610bb381610b8d565b92915050565b600080fd5b6000601f19601f8301169050919050565b7f4e487b7100000000000000000000000000000000000000000000000000000000600052604160045260246000fd5b610c0782610bbe565b810181811067ffffffffffffffff82111715610c2657610c25610bcf565b5b80604052505050565b6000610c39610b79565b9050610c458282610bfe565b919050565b600067ffffffffffffffff821115610c6557610c64610bcf565b5b602082029050602081019050919050565b600080fd5b6000610c8e610c8984610c4a565b610c2f565b90508083825260208201905060208402830185811115610cb157610cb0610c76565b5b835b81811015610cda5780610cc68882610ba4565b845260208401935050602081019050610cb3565b5050509392505050565b600082601f830112610cf957610cf8610bb9565b5b8135610d09848260208601610c7b565b91505092915050565b60008060408385031215610d2957610d28610b83565b5b6000610d3785828601610ba4565b925050602083013567ffffffffffffffff811115610d5857610d57610b88565b5b610d6485828601610ce4565b9150509250929050565b600080fd5b60008083601f840112610d8957610d88610bb9565b5b8235905067ffffffffffffffff811115610da657610da5610d6e565b5b602083019150836001820283011115610dc257610dc1610c76565b5b9250929050565b60008060208385031215610de057610ddf610b83565b5b600083013567ffffffffffffffff811115610dfe57610dfd610b88565b5b610e0a85828601610d73565b92509250509250929050565b600073ffffffffffffffffffffffffffffffffffffffff82169050919050565b6000610e4182610e16565b9050919050565b610e5181610e36565b82525050565b6000602082019050610e6c6000830184610e48565b92915050565b600080fd5b600067ffffffffffffffff821115610e9257610e91610bcf565b5b610e9b82610bbe565b9050602081019050919050565b82818337600083830152505050565b6000610eca610ec584610e77565b610c2f565b905082815260208101848484011115610ee657610ee5610e72565b5b610ef1848285610ea8565b509392505050565b600082601f830112610f0e57610f0d610bb9565b5b8135610f1e848260208601610eb7565b91505092915050565b600060208284031215610f3d57610f3c610b83565b5b600082013567ffffffffffffffff811115610f5b57610f5a610b88565b5b610f6784828501610ef9565b91505092915050565b60008115159050919050565b610f8581610f70565b82525050565b600081519050919050565b600082825260208201905092915050565b60005b83811015610fc5578082015181840152602081019050610faa565b83811115610fd4576000848401525b50505050565b6000610fe582610f8b565b610fef8185610f96565b9350610fff818560208601610fa7565b61100881610bbe565b840191505092915050565b60006040820190506110286000830185610f7c565b818103602083015261103a8184610fda565b90509392505050565b7f4e487b7100000000000000000000000000000000000000000000000000000000600052602160045260246000fd5b6002811061108357611082611043565b5b50565b600081905061109482611072565b919050565b60006110a482611086565b9050919050565b6110b481611099565b82525050565b60006020820190506110cf60008301846110ab565b92915050565b6000602082840312156110eb576110ea610b83565b5b60006110f984828501610ba4565b91505092915050565b60006040820190506111176000830185610e48565b6111246020830184610e48565b9392505050565b60006060820190506111406000830186610b4f565b61114d6020830185610b4f565b61115a6040830184610b4f565b949350505050565b6000819050919050565b61117581611162565b82525050565b600067ffffffffffffffff82169050919050565b6111988161117b565b82525050565b600061ffff82169050919050565b6111b58161119e565b82525050565b600063ffffffff82169050919050565b6111d4816111bb565b82525050565b600060a0820190506111ef600083018861116c565b6111fc602083018761118f565b61120960408301866111ac565b61121660608301856111cb565b61122360808301846111cb565b9695505050505050565b60008151905061123c81610b8d565b92915050565b60006020828403121561125857611257610b83565b5b60006112668482850161122d565b91505092915050565b7f4e487b7100000000000000000000000000000000000000000000000000000000600052601160045260246000fd5b60006112a982610b45565b91506112b483610b45565b9250828210156112c7576112c661126f565b5b828203905092915050565b7f4e487b7100000000000000000000000000000000000000000000000000000000600052603260045260246000fd5b7f4e487b7100000000000000000000000000000000000000000000000000000000600052601260045260246000fd5b600061133b82610b45565b915061134683610b45565b92508261135657611355611301565b5b828206905092915050565b600081905092915050565b50565b600061137c600083611361565b91506113878261136c565b600082019050919050565b600061139d8261136f565b915081905091905056fea26469706673582212202ae18640d84f9ea1bd3a3f0150f0e279dd61ae6ed342d7726d2198cad7e855e964736f6c63430008090033",
  "linkReferences": {},
  "deployedLinkReferences": {}
}